:020000040800F2
:100000000028002075260008052600080B26000899
:1000100011260008172600081D2600080000000011
:10002000000000000000000000000000232600087F
:100030002F260008000000003B2600084726000885
:10004000BD260008BD260008BD260008BD26000804
:10005000BD260008BD260008BD260008BD260008F4
:10006000BD260008BD260008BD260008BD260008E4
:10007000BD260008BD260008BD260008BD260008D4
:10008000BD260008BD260008BD260008BD260008C4
:10009000BD260008BD260008BD260008BD260008B4
:1000A000BD260008BD260008BD260008BD260008A4
:1000B00055260008BD26000800000000BD260008E7
:1000C000BD2600080000000000000000BD2600085A
:1000D00000000000BD260008BD260008000000004A
:1000E000BD260008BD260008BD260008000000004F
:1000F0000000000000000000000000000000000000
:0C01000000000000000000005FF808F1A3
:10010C0010B5054C237833B9044B13B10448AFF345
:10011C0000800123237010BDA4000020000000000B
:10012C00BC3C000808B5034B1BB103490348AFF3B3
:10013C00008008BD00000000A8000020BC3C0008A6
:10014C0080B400AF064B1B68012B04D1044B00227A
:10015C001A60012300E000231846BD4680BC70479E
:10016C00C000002080B400AF064B1B68012B04D1EB
:10017C00044B00221A60012300E000231846BD4600
:10018C0080BC7047C400002080B400AF064B1B68D5
:10019C00012B04D1044B00221A60012300E0002340
:1001AC001846BD4680BC7047C800002080B582B0A0
:1001BC0000AF00237B601DE1934A7B6852F823203B
:1001CC0092497B6841F82320914A7B6852F823209E
:1001DC008D497B6841F823207B68002B55D14FF467
:1001EC0080718C4802F050FD03461946884A7B68A2
:1001FC0042F82310854A7B6852F8232082497B6899
:10020C0051F823309A4240D17F4A7B6852F8232020
:10021C007F497B6851F823309A4236D17E4A7B68FD
:10022C0052F823207A497B6851F823309A4214D033
:10023C00774A7B6852F8232077497B6841F8232062
:10024C00734A7B6852F82330002B1ED1734B01226A
:10025C001A60734B64221A6017E06D4A7B6852F87F
:10026C002330002B11D16E4B1B68013B6C4A136081
:10027C006B4B1B68002B08D1684B01221A60694B31
:10028C0001221A60664B64221A607B68012B55D1DF
:10029C004FF400715F4802F0F7FC034619465C4AC4
:1002AC007B6842F82310594A7B6852F82320564940
:1002BC007B6851F823309A4240D1534A7B6852F8FC
:1002CC00232053497B6851F823309A4236D1524A45
:1002DC007B6852F823204E497B6851F823309A42B0
:1002EC0014D04B4A7B6852F823204B497B6841F869
:1002FC002320474A7B6852F82330002B1ED14A4BEF
:10030C0001221A60464B64221A6017E0404A7B684F
:10031C0052F82330002B11D1414B1B68013B404A52
:10032C0013603F4B1B68002B08D13F4B01221A6016
:10033C003E4B01221A603A4B64221A607B68022BF6
:10034C0055D14FF48061334802F09EFC03461946A8
:10035C002F4A7B6842F823102C4A7B6852F82320E2
:10036C0029497B6851F823309A4240D1264A7B6850
:10037C0052F8232026497B6851F823309A4236D113
:10038C00254A7B6852F8232021497B6851F8233099
:10039C009A4214D01E4A7B6852F823201E497B686F
:1003AC0041F823201A4A7B6852F82330002B1ED1C7
:1003BC001F4B01221A601A4B64221A6017E0144A70
:1003CC007B6852F82330002B11D1154B1B68013B75
:1003DC00134A1360124B1B68002B08D1144B0122DB
:1003EC001A60144B01221A600D4B64221A607B6850
:1003FC0001337B607B68022B7FF7DEAE00BF00BF52
:10040C000837BD4680BD00BF0C0000200000002056
:10041C0018000020000C014024000020C000002027
:10042C0030000020CC000020C4000020D0000020B0
:10043C00C8000020D400002080B400AF294B1B68FA
:10044C00092B06DC284B00221A60264B1B68264A17
:10045C005360244B1B68092B18DD224B1B68234A65
:10046C0082FB03129210DB17D31A1F4A13601D4B29
:10047C0019681E4B83FB01239A10CB17D21A134613
:10048C009B0013445B00CA1A174B5A60184B1B682D
:10049C00092B06DC174B00221A60154B1B68154AFA
:1004AC005360134B1B68092B18DD114B1B680F4A4B
:1004BC0082FB03129210DB17D31A0E4A13600C4BFB
:1004CC0019680A4B83FB01239A10CB17D21A1346D7
:1004DC009B0013445B00CA1A064B5A6000BFBD4612
:1004EC0080BC7047340000200401002067666666FB
:1004FC00400000201C01002080B400AF294B1B6879
:10050C00092B06DC284B00221A60264B1B68264A56
:10051C005360244B1B68092B18DD224B1B68234AA4
:10052C0082FB03129210DB17D31A1F4A13601D4B68
:10053C0019681E4B83FB01239A10CB17D21A134652
:10054C009B0013445B00CA1A174B5A60184B1B686C
:10055C00092B06DC174B00221A60154B1B68154A39
:10056C005360134B1B68092B18DD114B1B680F4A8A
:10057C0082FB03129210DB17D31A0E4A13600C4B3A
:10058C0019680A4B83FB01239A10CB17D21A134616
:10059C009B0013445B00CA1A064B5A6000BFBD4651
:1005AC0080BC7047380000200C010020676666662E
:1005BC00440000202401002080B400AF294B1B68AC
:1005CC00092B06DC284B00221A60264B1B68264A96
:1005DC005360244B1B68092B18DD224B1B68234AE4
:1005EC0082FB03129210DB17D31A1F4A13601D4BA8
:1005FC0019681E4B83FB01239A10CB17D21A134692
:10060C009B0013445B00CA1A174B5A60184B1B68AB
:10061C00092B06DC174B00221A60154B1B68154A78
:10062C005360134B1B68092B18DD114B1B680F4AC9
:10063C0082FB03129210DB17D31A0E4A13600C4B79
:10064C0019680A4B83FB01239A10CB17D21A134655
:10065C009B0013445B00CA1A064B5A6000BFBD4690
:10066C0080BC70473C000020140100206766666661
:10067C00480000202C01002080B582B000AF7860CB
:10068C007B68002B03D07B68012B12D023E0002267
:10069C004FF40041124802F00EFB01224FF480513E
:1006AC000F4802F008FB0F4B1B68184600F034F99A
:1006BC0011E001224FF40041094802F0FCFA00223B
:1006CC004FF48051064802F0F6FA064B5B68184668
:1006DC0000F022F900BF00BF0837BD4680BD00BF47
:1006EC00000C01401C01002080B582B000AF786086
:1006FC007B68002B03D07B68012B12D023E00022F7
:10070C004FF40041124802F0D6FA01224FF4805106
:10071C000F4802F0D0FA0F4B1B68184600F0FCF89B
:10072C0011E001224FF40041094802F0C4FA002202
:10073C004FF48051064802F0BEFA064B5B6818462F
:10074C0000F0EAF800BF00BF0837BD4680BD00BF0F
:10075C00000C01402401002080B582B000AF78600D
:10076C007B68002B03D07B68012B12D023E0002286
:10077C004FF40041124802F09EFA01224FF48051CE
:10078C000F4802F098FA0F4B1B68184600F0C4F89B
:10079C0011E001224FF40041094802F08CFA0022CA
:1007AC004FF48051064802F086FA064B5B681846F7
:1007BC0000F0B2F800BF00BF0837BD4680BD00BFD7
:1007CC00000C01402C01002080B582B000AF786095
:1007DC007B68002B03D07B68012B12D022E0002217
:1007EC004FF40051124802F066FA01224FF4804196
:1007FC000F4802F060FA0F4B1B68184600F01AFA0B
:10080C0011E001224FF40051094802F054FA002281
:10081C004FF48041064802F04EFA064B5B681846CE
:10082C0000F008FA00BF00BF0837BD4680BD00BF0E
:10083C00000C01400C01002080B582B000AF786044
:10084C007B68002B03D07B68012B12D022E00022A6
:10085C004FF40051124802F02EFA01224FF480415D
:10086C000F4802F028FA0F4B1B68184600F0E2F90B
:10087C0011E001224FF40051094802F01CFA002249
:10088C004FF48041064802F016FA064B5B68184696
:10089C0000F0D0F900BF00BF0837BD4680BD00BFD7
:1008AC00000C01400401002080B582B000AF7860DC
:1008BC007B68002B03D07B68012B12D022E0002236
:1008CC004FF40051124802F0F6F901224FF4804126
:1008DC000F4802F0F0F90F4B1B68184600F0AAF90C
:1008EC0011E001224FF40051094802F0E4F9002212
:1008FC004FF48041064802F0DEF9064B5B6818465F
:10090C0000F098F900BF00BF0837BD4680BD00BF9E
:10091C00000C01401401002080B582B000AF78605B
:10092C007B68092B00F2808101A252F823F000BFF2
:10093C0065090008AD090008F50900083D0A000822
:10094C00850A0008CD0A0008150B00085D0B00088D
:10095C00A50B0008ED0B000800220121B44802F0A1
:10096C00AAF900220221B24802F0A5F900220421C2
:10097C00AF4802F0A0F900220821AD4802F09BF923
:10098C0000221021AA4802F096F900222021A84842
:10099C0002F091F901224021A54802F08CF943E1C3
:1009AC0001220121A24802F086F900220221A0486E
:1009BC0002F081F9002204219D4802F07CF9012209
:1009CC0008219B4802F077F901221021984802F087
:1009DC0072F901222021964802F06DF90122402182
:1009EC00934802F068F91FE100220121904802F0BF
:1009FC0062F9002202218E4802F05DF901220421E5
:100A0C008B4802F058F900220821894802F053F96A
:100A1C0000221021864802F04EF901222021844840
:100A2C0002F049F900224021814802F044F9FBE030
:100A3C00002201217E4802F03EF9002202217C486E
:100A4C0002F039F900220421794802F034F900222D
:100A5C000821774802F02FF901221021744802F086
:100A6C002AF901222021724802F025F900224021A6
:100A7C006F4802F020F9D7E0012201216C4802F006
:100A8C001AF9002202216A4802F015F90022042109
:100A9C00674802F010F901220821654802F00BF9B1
:100AAC0001221021624802F006F900222021604840
:100ABC0002F001F9002240215D4802F0FCF8B3E09D
:100ACC00002201215A4802F0F6F80122022158486E
:100ADC0002F0F1F800220421554802F0ECF8002253
:100AEC000821534802F0E7F801221021504802F087
:100AFC00E2F8002220214E4802F0DDF800224021CD
:100B0C004B4802F0D8F88FE000220121484802F04F
:100B1C00D2F801220221464802F0CDF8002204212D
:100B2C00434802F0C8F800220821414802F0C3F8FB
:100B3C00002210213E4802F0BEF8002220213C4841
:100B4C0002F0B9F800224021394802F0B4F86BE009
:100B5C0000220121364802F0AEF80022022134486E
:100B6C0002F0A9F800220421314802F0A4F8012275
:100B7C0008212F4802F09FF8012210212C4802F086
:100B8C009AF8012220212A4802F095F801224021EE
:100B9C00274802F090F847E000220121244802F097
:100BAC008AF800220221224802F085F80022042152
:100BBC001F4802F080F8002208211D4802F07BF843
:100BCC00002210211A4802F076F800222021184841
:100BDC0002F071F800224021154802F06CF823E075
:100BEC0000220121124802F066F80022022110486E
:100BFC0002F061F8002204210D4802F05CF800229A
:100C0C0008210B4802F057F801221021084802F085
:100C1C0052F800222021064802F04DF80022402113
:100C2C00034802F048F800BF00BF0837BD4680BD3E
:100C3C00000C014080B582B000AF78607B68092B56
:100C4C0000F2B28101A252F823F000BF810C00081F
:100C5C00D30C0008250D0008770D0008C90D0008FD
:100C6C001B0E00086D0E0008BF0E0008110F0008C7
:100C7C00630F000800221021CD4802F01CF800225E
:100C8C004FF40061CA4802F016F800224FF480516C
:100C9C00C74802F010F800224FF40051C44802F08B
:100CAC000AF800224FF48041C14802F004F80022F7
:100CBC004FF40041BE4801F0FEFF01228021BD48E7
:100CCC0001F0F9FF70E101221021B94801F0F3FFA6
:100CDC0000224FF40061B64801F0EDFF00224FF402
:100CEC008051B34801F0E7FF01224FF40051B048A6
:100CFC0001F0E1FF01224FF48041AD4801F0DBFF30
:100D0C0001224FF40041AA4801F0D5FF01228021B5
:100D1C00A84801F0D0FF47E100221021A44801F0BF
:100D2C00CAFF00224FF40061A14801F0C4FF012268
:100D3C004FF480519E4801F0BEFF00224FF4005149
:100D4C009B4801F0B8FF00224FF48041984801F015
:100D5C00B2FF01224FF40041954801F0ACFF002294
:100D6C008021944801F0A7FF1EE100221021904839
:100D7C0001F0A1FF00224FF400618D4801F09BFFB0
:100D8C0000224FF480518A4801F095FF00224FF465
:100D9C000051874801F08FFF01224FF480418448B5
:100DAC0001F089FF01224FF40041814801F083FFDB
:100DBC00002280217F4801F07EFFF5E00122102106
:100DCC007B4801F078FF00224FF40061784801F075
:100DDC0072FF00224FF48051754801F06CFF012224
:100DEC004FF40051724801F066FF01224FF480412C
:100DFC006F4801F060FF00224FF400416C4801F095
:100E0C005AFF002280216B4801F055FFCCE00022F4
:100E1C001021674801F04FFF01224FF40061644834
:100E2C0001F049FF00224FF48051614801F043FF6B
:100E3C0000224FF400515E4801F03DFF01224FF4B7
:100E4C0080415B4801F037FF00224FF400415848C5
:100E5C0001F031FF00228021564801F02CFFA3E065
:100E6C0000221021524801F026FF01224FF40061AC
:100E7C004F4801F020FF00224FF480514C4801F004
:100E8C001AFF00224FF40051494801F014FF0022D0
:100E9C004FF48041464801F00EFF00224FF4004110
:100EAC00434801F008FF00228021424801F003FF73
:100EBC007AE0002210213E4801F0FDFE00224FF4A2
:100ECC0000613B4801F0F7FE00224FF48051384896
:100EDC0001F0F1FE01224FF40051354801F0EBFE18
:100EEC0001224FF48041324801F0E5FE01224FF41B
:100EFC0000412F4801F0DFFE012280212D4801F036
:100F0C00DAFE51E000221021294801F0D4FE002223
:100F1C004FF40061264801F0CEFE00224FF48051C0
:100F2C00234801F0C8FE00224FF40051204801F084
:100F3C00C2FE00224FF480411D4801F0BCFE00228D
:100F4C004FF400411A4801F0B6FE002280211948E6
:100F5C0001F0B1FE28E000221021154801F0ABFE93
:100F6C0000224FF40061124801F0A5FE00224FF45C
:100F7C0080510F4801F09FFE00224FF400510C48A5
:100F8C0001F099FE01224FF48041094801F093FED3
:100F9C0000224FF40041064801F08DFE0022802112
:100FAC00044801F088FE00BF00BF0837BD4680BD75
:100FBC0000080140000C014080B500AF784B1B6865
:100FCC00672B00F0D080672B00F3E080662B00F0DD
:100FDC00B780662B00F3DA80042B11DC002B40F376
:100FEC00D580013B032B00F2D18001A252F823F0F3
:100FFC0015100008531000089B100008E1100008A1
:10100C00652B00F08A80C1E000224FF480716548A6
:10101C0001F051FE00224FF48061624801F04BFE5A
:10102C0000224FF400715F4801F045FE5C4B022238
:10103C001A605D4B1B685D4A126802FB03F318468D
:10104C0001F0C2F9A9E001224FF48071554801F07A
:10105C0032FE00224FF48061524801F02CFE002237
:10106C004FF400714F4801F026FE514B1B68012BC9
:10107C0040F08E804A4B03221A604E4B1B684B4A41
:10108C00126802FB03F3184601F09EF980E000227F
:10109C004FF48071434801F00EFE00224FF4806142
:1010AC00404801F008FE01224FF400713D4801F068
:1010BC0002FE3F4B1B68012B6CD1394B04221A608A
:1010CC003D4B1B68394A126802FB03F3184601F0CA
:1010DC007BF95FE000224FF48071324801F0EBFDA8
:1010EC0001224FF480612F4801F0E5FD00224FF4FE
:1010FC0000712C4801F0DFFD2D4B1B68012B4BD1EF
:10110C00274B02221A60284B1B68284A126802FBE4
:10111C0003F3184601F058F93EE001224FF48071B8
:10112C00204801F0C8FD00224FF480611D4801F0F9
:10113C00C2FD00224FF400711A4801F0BCFD2CE0F6
:10114C0000224FF48071174801F0B5FD01224FF4D5
:10115C008061144801F0AFFD00224FF4007111487A
:10116C0001F0A9FD19E000224FF480710D4801F047
:10117C00A2FD00224FF480610A4801F09CFD01227F
:10118C004FF40071074801F096FD06E000BF04E043
:10119C0000BF02E000BF00E000BF00BF80BD00BF89
:1011AC00F40000200008014064000020940000209E
:1011BC00440100206C0000206800002080B500AFC6
:1011CC006C4B1B68672B00F0BC80672B00F3C9804D
:1011DC00662B00F0A680662B00F3C380082B11DC75
:1011EC00052BC0F2BE80053B032B00F2BA8001A296
:1011FC0052F823F0171200084F1200088F12000843
:10120C00CF120008652B7CD0ABE0002220215A487D
:10121C0001F051FD00228021574801F04CFD0022C5
:10122C004021554801F047FD524B06221A60534BA2
:10123C001B68534A126802FB03F3184601F0A8F826
:10124C0096E0002220214C4801F035FD002280213F
:10125C00494801F030FD01224021474801F02BFDA7
:10126C00484B1B68012B7ED1424B07221A60464B20
:10127C001B68434A126802FB03F3184601F088F816
:10128C0071E0002220213C4801F015FD0122802153
:10129C00394801F010FD00224021374801F00BFDC8
:1012AC00384B1B68012B60D1324B08221A60374B2C
:1012BC001B68334A126802FB03F3184601F068F806
:1012CC0053E0012220212C4801F0F5FC0022802162
:1012DC00294801F0F0FC00224021274801F0EBFCEA
:1012EC00284B1B68012B42D1224B06221A60234B40
:1012FC001B68234A126802FB03F3184601F048F8F6
:10130C0035E0012220211C4801F0D5FC002280216F
:10131C00194801F0D0FC00224021174801F0CBFC09
:10132C0026E000222021144801F0C5FC0122802176
:10133C00114801F0C0FC002240210F4801F0BBFC19
:10134C0016E0002220210C4801F0B5FC002280217F
:10135C00094801F0B0FC01224021074801F0ABFC28
:10136C0006E000BF04E000BF02E000BF00E000BFE9
:10137C0000BF80BDF800002000080140780000206C
:10138C00940000204C01002074000020700000200C
:10139C0080B500AF9E4B1B68013B052B00F22981E9
:1013AC0001A252F823F000BFCD1300084514000829
:1013BC00BD14000833150008BB150008771500088C
:1013CC00944B01221A60944B01221A60934B012218
:1013DC001A60934B1B68012B16D1924B1B68013B77
:1013EC00904A1360FFF728F88E4B1B68002B06D130
:1013FC008D4B1B688B4A1360854B02221A608B4BFA
:10140C001B68184600F08CFF894B1B68012B40F0C1
:10141C00F280884B1B68012B02DD864B00221A6080
:10142C00844B1B685A1C83490A601846FFF704FA60
:10143C00502000F059FFDEE0764B01221A60764B0B
:10144C0001221A60754B01221A60754B1B68012B27
:10145C0016D1794B1B68013B774A1360FFF74CF8A8
:10146C00754B1B68002B06D1744B1B68724A1360BA
:10147C00674B03221A606D4B1B68184600F050FF37
:10148C006B4B1B68012B40F0B8806A4B1B68012B1F
:10149C0002DD684B00221A60664B1B685A1C6549BA
:1014AC000A601846FFF790F9502000F01DFFA4E0E9
:1014BC00584B01221A60584B01221A60574B0122DB
:1014CC001A60574B1B68012B16D15D4B1B68013BF7
:1014DC005B4A1360FFF770F8594B1B68002B06D161
:1014EC00584B1B68564A1360494B01221A604F4BEC
:1014FC001B68184600F014FF4D4B1B68012B7ED166
:10150C004C4B1B68012B02DD4A4B00221A60494BE5
:10151C001B685A1C47490A601846FFF7C5F950204A
:10152C0000F0E2FE6BE03E4B1B68012B06D1FEF790
:10153C0083FF3E4B1B68184600F0F2FE3C4B1B68C9
:10154C00012B5ED13B4B1B68012B02DD394B00227A
:10155C001A60384B1B685A1C36490A601846FFF74C
:10156C006BF9502000F0C0FE4BE02D4B1B68012B9B
:10157C0006D1FEF7C1FF2D4B1B68184600F0D0FEBC
:10158C002B4B1B68012B3ED12A4B1B68012B02DD18
:10159C00284B00221A60274B1B685A1C25490A60ED
:1015AC001846FFF711F9502000F09EFE2BE01C4B63
:1015BC001B68012B06D1FEF7FFFF1C4B1B6818465E
:1015CC0000F0AEFE1A4B1B68012B1ED1194B1B6889
:1015DC00012B02DD174B00221A60164B1B685A1C9C
:1015EC0014490A601846FFF75FF9502000F07CFEA2
:1015FC000BE000BF0AE000BF08E000BF06E000BF40
:10160C0004E000BF02E000BF00E000BF00BF80BDEF
:10161C0000010020D8000020DC000020E0000020A9
:10162C005C010020340000204C00002094000020BD
:10163C0064010020340100203800002050000020FC
:10164C003C0000205400002080B500AF9E4B1B686E
:10165C00013B052B00F2298101A252F823F000BFB7
:10166C0085160008FD16000875170008EB17000812
:10167C002F18000873180008944B01221A60944B21
:10168C0001221A60934B01221A60934B1B68012BA9
:10169C0016D1924B1B68013B904A1360FEF72CFF4E
:1016AC008E4B1B68002B06D18D4B1B688B4A13602D
:1016BC00854B02221A608B4B1B68184600F04CFEBF
:1016CC00894B1B68012B40F0F280884B1B68012B67
:1016DC0002DD864B00221A60844B1B685A1C83491E
:1016EC000A601846FFF700F8502000F0E1FDDEE03C
:1016FC00764B01221A60764B01221A60754B01223F
:10170C001A60754B1B68012B16D1794B1B68013B7A
:10171C00774A1360FEF750FF754B1B68002B06D100
:10172C00744B1B68724A1360674B03221A606D4B33
:10173C001B68184600F010FE6B4B1B68012B40F029
:10174C00B8806A4B1B68012B02DD684B00221A60C3
:10175C00664B1B685A1C65490A601846FEF7FCFF6D
:10176C00502000F0A5FDA4E0584B01221A60584B04
:10177C0001221A60574B01221A60574B1B68012B30
:10178C0016D15D4B1B68013B5B4A1360FEF754FEA0
:10179C00594B1B68002B06D1584B1B68564A1360DB
:1017AC00494B01221A604F4B1B68184600F0D4FDC0
:1017BC004D4B1B68012B7ED14C4B1B68012B02DD62
:1017CC004A4B00221A60494B1B685A1C47490A6055
:1017DC001846FEF751FF502000F06AFD6BE03E4BBF
:1017EC001B68012B06D1FEF727FE3E4B1B681846E3
:1017FC0000F0B2FD3C4B1B68012B5ED13B4B1B68D0
:10180C00012B02DD394B00221A60384B1B685A1C25
:10181C0036490A601846FEF72FFF502000F048FDAD
:10182C004BE02D4B1B68012B06D1FEF7C5FE2D4B53
:10183C001B68184600F090FD2B4B1B68012B3ED10A
:10184C002A4B1B68012B02DD284B00221A60274B08
:10185C001B685A1C25490A601846FEF77DFF50206C
:10186C0000F026FD2BE01C4B1B68012B06D1FEF76C
:10187C0043FE1C4B1B68184600F06EFD1A4B1B6890
:10188C00012B1ED1194B1B68012B02DD174B0022BB
:10189C001A60164B1B685A1C14490A601846FEF74E
:1018AC0023FF502000F004FD0BE000BF0AE000BF56
:1018BC0008E000BF06E000BF04E000BF02E000BF8C
:1018CC0000E000BF00BF80BDFC000020E400002051
:1018DC00E8000020EC00002054010020440000200F
:1018EC005C000020940000206C01002038010020D6
:1018FC00480000206000002040000020580000201C
:10190C0080B500AF744B1B680C3B042B00F28C8130
:10191C0001A252F823F000BF391900084119000840
:10192C00551900081D1A0008491B00086A4B0D22A6
:10193C001A6079E1FEF704FC0346012B40F06D813F
:10194C00654B0E221A6068E1644B65221A60644B89
:10195C0065221A60634B04221A60634B04221A60DE
:10196C00624B1B68012B05D1614B05221A605F4B42
:10197C0000221A605F4B1B68012B05D15E4B0522C0
:10198C001A605C4B00221A60FEF7ECFB0346012B3D
:10199C001BD15A4B1B680133584A1360584B1B68B8
:1019AC000133574A1360524B1B680133504A136082
:1019BC00514B1B680133504A13604D4B1B68514A05
:1019CC0013604D4B1B68504A1360FEF7DDFB03465A
:1019DC00012B13D14D4B1B68494A13604C4B1B68B0
:1019EC00464A1360424B05221A60434B05221A608B
:1019FC00444B05221A60444B05221A60FEF7A0FBEB
:101A0C000346012B40F00B81334B0F221A6006E189
:101A1C00324B67221A60324B67221A60314B062216
:101A2C001A60314B06221A603A4B1B68012B05D108
:101A3C00394B03221A60374B00221A60374B1B6854
:101A4C00012B05D1364B03221A60344B00221A604D
:101A5C00FEF788FB0346012B1BD1324B1B6801336D
:101A6C00304A1360304B1B6801332F4A13602A4BEA
:101A7C001B680133284A1360294B1B680133284A21
:101A8C001360254B1B68294A1360254B1B68284A99
:101A9C001360FEF779FB0346012B13D1254B1B6812
:101AAC00214A1360244B1B681E4A13601A4B0322F5
:101ABC001A601B4B03221A601C4B03221A601C4B2E
:101ACC0003221A60FEF73CFB0346012B40F0A98071
:101ADC00014B10221A60A4E0F0000020F40000205A
:101AEC00F800002000010020FC000020D80000209D
:101AFC0034000020E400002040000020640000209E
:101B0C00700000204C0000205800002088000020AD
:101B1C007C000020DC00002038000020E8000020C1
:101B2C00440000206C0000207800002050000020B1
:101B3C005C00002090000020840000203B4B6622BB
:101B4C001A603B4B66221A603A4B05221A603A4BDC
:101B5C0005221A60394B1B68012B05D1384B022228
:101B6C001A60364B00221A60364B1B68012B05D1CC
:101B7C00354B02221A60334B00221A60FEF7F2FA40
:101B8C000346012B1BD1314B1B6801332F4A1360C9
:101B9C002F4B1B6801332E4A1360294B1B680133F2
:101BAC00274A1360284B1B680133274A1360244BC8
:101BBC001B68284A1360244B1B68274A1360FEF7E6
:101BCC00E3FA0346012B13D1244B1B68204A136004
:101BDC00234B1B681D4A1360194B02221A601A4BC7
:101BEC0002221A601C4B02221A601A4B02221A6043
:101BFC00FEF7A6FA0346012B15D11A4B0C221A60DC
:101C0C000A4B01221A600A4B05221A60094B012269
:101C1C001A60094B01221A6005E000BF04E000BF06
:101C2C0002E000BF00E000BF00BF80BDF400002058
:101C3C00F800002000010020FC000020E000002043
:101C4C003C000020EC000020480000206800002030
:101C5C007400002054000020600000208C00002044
:101C6C0080000020F000002080B500AF00F022FDC5
:101C7C0000F062F80A2000F037FB0A2000F06CFB41
:101C8C000A2000F04DFB0A2000F082FB0A2000F035
:101C9C009BFB0A2000F00CFB0A2000F0EDFA0A2056
:101CAC0000F0CEFA00F0D0F800F082F8174801F0FE
:101CBC0047FC00F081F9164B01221A60154B0522E6
:101CCC001A60154B01221A60144B01221A60144B36
:101CDC000C221A600A220021124800F087F90A220D
:101CEC000021114800F082F90A2200210F4800F06F
:101CFC007DF90A2200210E4800F078F90A22002111
:101D0C000C4800F073F900F027FAFCE7A00400205F
:101D1C00F4000020F800002000010020FC0000204E
:101D2C00F00000200D190008C50F00089D130008D5
:101D3C00C91100085516000880B590B000AF07F126
:101D4C00180328220021184601F0AAFF3B1D00228F
:101D5C001A605A609A60DA601A610223BB6101232F
:101D6C00BB621023FB6200237B6307F11803184648
:101D7C0000F0BAFF0346002B01D000F0DCF80F2373
:101D8C007B600023BB600023FB6000233B610023CE
:101D9C007B613B1D0021184601F026FA0346002BFF
:101DAC0001D000F0C8F800BF4037BD4680BD000030
:101DBC0080B586B000AF07F1080300221A605A60A4
:101DCC009A60DA603B4600221A605A601D4B4FF055
:101DDC0080421A601B4B41F63F725A60194B00222D
:101DEC009A60184B0922DA60164B00221A61154BC7
:101DFC0000229A61134801F053FB0346002B01D0DB
:101E0C0000F099F84FF48053BB6007F108031946B2
:101E1C000C4801F0D1FC0346002B01D000F08BF8EC
:101E2C0000233B6000237B603B461946054801F0CC
:101E3C00A9FE0346002B01D000F07DF800BF183737
:101E4C00BD4680BDA004002080B586B000AF07F170
:101E5C00080300221A605A609A60DA60294B9B6969
:101E6C00284A43F004039361264B9B6903F0040357
:101E7C007B607B68234B9B69224A43F00803936188
:101E8C00204B9B6903F008033B603B6800224FF634
:101E9C00F8711D4800F00FFF00224FF2FF011B48A4
:101EAC0000F009FF4FF6F873BB600123FB600023C1
:101EBC003B6102237B6107F108031946124800F0CD
:101ECC0069FD4FF2FF03BB600123FB6000233B6104
:101EDC0002237B6107F1080319460C4800F05AFDF8
:101EEC004FF4E063BB600023FB6001233B6107F10F
:101EFC0008031946054800F04DFD00BF1837BD46D4
:101F0C0080BD00BF0010024000080140000C0140E1
:101F1C0080B582B000AF78607B681B68B3F1804FEE
:101F2C0001D100F0B9F8FEF741F900F069FA00BFF1
:101F3C000837BD4680BD80B400AF72B600BFFEE767
:101F4C0080B485B000AF0346FB71FA79184913468B
:101F5C009B0013449B000B4400221A60FA7914492D
:101F6C0013469B0013449B000B44043300221A605D
:101F7C00FA790F4913469B0013449B000B4408331A
:101F8C0000221A60FA790A4913469B0013449B00FD
:101F9C000B440C3300221A70064B1B78013BDAB24F
:101FAC00044B1A70FB7B18461437BD4680BC704737
:101FBC00800100203C01002080B582B000AF0023DE
:101FCC00FB7106E0FB791846FFF7BAFFFB7901338A
:101FDC00FB71054B1B78FA799A42F3D300BF00BF13
:101FEC000837BD4680BD00BF3C01002080B485B0E1
:101FFC0000AFF860B9607A60254B1B78272B42D86C
:10200C00234B1B781946234A0B469B000B449B0021
:10201C001344FA681A601E4B1B7819461D4A0B466E
:10202C009B000B449B0013440433BA681A60184B92
:10203C001B781946174A0B469B000B449B00134414
:10204C0008337A681A60124B1B781946114A0B46F2
:10205C009B000B449B0013440C3300221A700C4B56
:10206C001A780B4B1B78194610460A4A0B469B00F4
:10207C000B449B00134410331860054B1B78013341
:10208C00DAB2034B1A7000BF1437BD4680BC7047E0
:10209C003C0100208001002080B483B000AF0023FD
:1020AC007B6048E02A497A6813469B0013449B00E6
:1020BC000B4404331B68002B13D025497A68134654
:1020CC009B0013449B000B4404331B68591E20488F
:1020DC007A6813469B0013449B0003440433196035
:1020EC0026E01B497A6813469B0013449B000B4463
:1020FC000833196816487A6813469B0013449B00F2
:10210C0003440433196012497A6813469B00134444
:10211C009B000B440C331B780133D8B20C497A6802
:10212C0013469B0013449B000B440C3302461A705D
:10213C007B6801337B60074B1B781A467B689342A4
:10214C00B0DB00BF00BF0C37BD4680BC704700BF82
:10215C00800100203C01002080B582B000AF00233C
:10216C007B605DE07B68032B2ED133497A68134684
:10217C009B0013449B000B440C331B78002B4CD05E
:10218C002D497A6813469B0013449B000B440C3377
:10219C001B78013BD8B228497A6813469B0013443C
:1021AC009B000B440C3302461A7023497A68134681
:1021BC009B0013449B000B441B6898477B68DBB265
:1021CC001846FFF7BDFE28E01B497A6813469B00B2
:1021DC0013449B000B440C331B78002B1DD0164969
:1021EC007A6813469B0013449B000B440C331B78FA
:1021FC00013BD8B210497A6813469B0013449B00EC
:10220C000B440C3302461A700B497A6813469B0038
:10221C0013449B000B441B6898477B6801337B601D
:10222C00064B1B781A467B6893429BDB00BF00BFB2
:10223C000837BD4680BD00BF800100203C01002056
:10224C0080B483B000AF78607B68084A82FB0312CD
:10225C009210DB17D31A064A1360064B00221A6041
:10226C0000BF0C37BD4680BC704700BF6766666612
:10227C00780100207C01002080B483B000AF78602E
:10228C007B68084A82FB03129210DB17D31A064AAA
:10229C001360064B00221A6000BF0C37BD4680BC91
:1022AC00704700BF676666667001002074010020ED
:1022BC0080B483B000AF78607B68084A82FB03125D
:1022CC009210DB17D31A064A1360064B00221A60D1
:1022DC0000BF0C37BD4680BC704700BF67666666A2
:1022EC00680100206C01002080B483B000AF7860DE
:1022FC007B68084A82FB03129210DB17D31A064A3A
:10230C001360064B00221A6000BF0C37BD4680BC20
:10231C00704700BF6766666660010020640100209C
:10232C0080B483B000AF78607B68084A82FB0312EC
:10233C009210DB17D31A064A1360064B00221A6060
:10234C0000BF0C37BD4680BC704700BF6766666631
:10235C00580100205C01002080B483B000AF78608D
:10236C007B68084A82FB03129210DB17D31A064AC9
:10237C001360064B00221A6000BF0C37BD4680BCB0
:10238C00704700BF6766666650010020540100204C
:10239C0080B483B000AF78607B68084A82FB03127C
:1023AC009210DB17D31A064A1360064B00221A60F0
:1023BC0000BF0C37BD4680BC704700BF67666666C1
:1023CC00480100204C01002080B483B000AF78603D
:1023DC007B68084A82FB03129210DB17D31A064A59
:1023EC001360064B00221A6000BF0C37BD4680BC40
:1023FC00704700BF676666664001002044010020FC
:10240C0080B400AF414B1B68002B0BDD3F4B1B68AE
:10241C00013B3E4A13603D4B1B68002B02D13C4BE9
:10242C0001221A603B4B1B68002B0BDD394B1B68E0
:10243C00013B384A1360374B1B68002B02D1364BDB
:10244C0001221A60354B1B68002B0BDD334B1B68CC
:10245C00013B324A1360314B1B68002B02D1304BCD
:10246C0001221A602F4B1B68002B0BDD2D4B1B68B8
:10247C00013B2C4A13602B4B1B68002B02D12A4BBF
:10248C0001221A60294B1B68002B0BDD274B1B68A4
:10249C00013B264A1360254B1B68002B02D1244BB1
:1024AC0001221A60234B1B68002B0BDD214B1B6890
:1024BC00013B204A13601F4B1B68002B02D11E4BA3
:1024CC0001221A601D4B1B68002B0BDD1B4B1B687C
:1024DC00013B1A4A1360194B1B68002B02D1184B95
:1024EC0001221A60174B1B68002B0BDD154B1B6868
:1024FC00013B144A1360134B1B68002B02D1124B87
:10250C0001221A6000BFBD4680BC7047400100200C
:10251C0044010020480100204C0100205001002003
:10252C0054010020580100205C01002060010020B3
:10253C0064010020680100206C0100207001002063
:10254C0074010020780100207C01002080B485B04B
:10255C0000AF154B9B69144A43F001039361124B76
:10256C009B6903F00103BB60BB680F4BDB690E4A30
:10257C0043F08053D3610C4BDB6903F080537B60D9
:10258C007B680A4B5B68FB60FB6823F0E063FB60D5
:10259C00FB6843F08063FB60044AFB68536000BF38
:1025AC001437BD4680BC704700100240000001404B
:1025BC0080B584B000AF78607B681B68B3F1804F46
:1025CC0013D10C4BDB690B4A43F00103D361094B6C
:1025DC00DB6903F00103FB60FB68002200211C2077
:1025EC0000F0A1F91C2000F0BAF900BF1037BD466D
:1025FC0080BD00BF0010024080B400AFFEE780B485
:10260C0000AFFEE780B400AFFEE780B400AFFEE79A
:10261C0080B400AFFEE780B400AF00BFBD4680BC05
:10262C00704780B400AF00BFBD4680BC704780B41B
:10263C0000AF00BFBD4680BC704780B500AF00F056
:10264C007FF800BF80BD000080B500AF024800F0ED
:10265C00C3FF00BF80BD00BFA004002080B400AF4A
:10266C0000BFBD4680BC7047FFF7F8FF0B480C4914
:10267C000C4A002302E0D458C4500433C4188C42D2
:10268C00F9D3094A094C002301E013600432A24239
:10269C00FBD301F0E1FAFFF7E7FA704700000020E6
:1026AC00A4000020003D0008A4000020EC04002041
:1026BC00FEE7000080B500AF084B1B68074A43F0EB
:1026CC0010031360032000F023F90F2000F008F82A
:1026DC00FFF73CFF0023184680BD00BF00200240DE
:1026EC0080B582B000AF7860124B1A68124B1B7821
:1026FC0019464FF47A73B3FBF1F3B2FBF3F31846BC
:10270C0000F03BF90346002B01D001230EE07B685F
:10271C000F2B0AD8002279684FF0FF3000F003F934
:10272C00064A7B681360002300E001231846083733
:10273C00BD4680BD98000020A00000209C00002019
:10274C0080B400AF054B1B781A46054B1B6813442D
:10275C00034A136000BFBD4680BC7047A000002038
:10276C00E804002080B400AF024B1B681846BD463D
:10277C0080BC7047E804002080B485B000AF78605E
:10278C007B6803F00703FB600C4BDB68BB60BA682B
:10279C004FF6FF031340BB60FB681A02BB68134380
:1027AC0043F0BF6343F40033BB60044ABB68D3609F
:1027BC0000BF1437BD4680BC704700BF00ED00E081
:1027CC0080B400AF044BDB681B0A03F00703184608
:1027DC00BD4680BC704700BF00ED00E080B483B004
:1027EC0000AF0346FB7197F90730002B0BDBFB792D
:1027FC0003F01F02064997F907305B09012000FA24
:10280C0002F241F8232000BF0C37BD4680BC704754
:10281C0000E100E080B483B000AF03463960FB7187
:10282C0097F90730002B0ADB3B68DAB20C4997F9B1
:10283C0007301201D2B20B4483F800230AE03B6844
:10284C00DAB20849FB7903F00F03043B1201D2B250
:10285C000B441A7600BF0C37BD4680BC704700BFD6
:10286C0000E100E000ED00E080B489B000AFF8605A
:10287C00B9607A60FB6803F00703FB61FB69C3F185
:10288C000703042B28BF0423BB61FB690433062B0D
:10289C0002D9FB69033B00E000237B614FF0FF3260
:1028AC00BB6902FA03F3DA43BB681A407B699A40AE
:1028BC004FF0FF317B6901FA03F3D9437B680B407E
:1028CC00134318462437BD4680BC704780B582B090
:1028DC0000AF78607B68013BB3F1807F01D30123AB
:1028EC000FE00A4A7B68013B53600F214FF0FF3029
:1028FC00FFF790FF054B00229A60044B07221A60E9
:10290C00002318460837BD4680BD00BF10E000E02C
:10291C0080B582B000AF78607868FFF72DFF00BFFC
:10292C000837BD4680BD80B586B000AF0346B960A0
:10293C007A60FB7300237B61FFF742FF78617A6852
:10294C00B9687869FFF790FF024697F90F30114686
:10295C001846FFF75FFF00BF1837BD4680BD80B536
:10296C0082B000AF0346FB7197F907301846FFF7AA
:10297C0035FF00BF0837BD4680BD80B582B000AFC3
:10298C0078607868FFF7A2FF034618460837BD4603
:10299C0080BD000080B48BB000AF7860396000233C
:1029AC007B6200233B6248E101227B6A02FA03F35B
:1029BC00FB613B681B68FA691340BB61BA69FB6930
:1029CC009A4240F037813B685B68A34A93425ED0E1
:1029DC00A14A934275D8A14A934258D09F4A934238
:1029EC006FD89F4A934252D09D4A934269D89D4AD0
:1029FC0093424CD09B4A934263D89B4A934246D015
:102A0C00994A93425DD8122B2AD8122B59D801A27D
:102A1C0052F823F09B2A0008752A0008872A000820
:102A2C00C92A0008CF2A0008CF2A0008CF2A00089C
:102A3C00CF2A0008CF2A0008CF2A0008CF2A000886
:102A4C00CF2A0008CF2A0008CF2A0008CF2A000876
:102A5C00CF2A0008CF2A00087D2A0008912A0008F6
:102A6C00824A934213D02CE03B68DB683B6229E03E
:102A7C003B68DB6804333B6224E03B68DB6808336B
:102A8C003B621FE03B68DB680C333B621AE03B683F
:102A9C009B68002B02D104233B6213E03B689B68CC
:102AAC00012B05D108233B627B68FA691A6109E0A6
:102ABC0008233B627B68FA695A6103E000233B629E
:102ACC0000E000BFBB69FF2B01D87B6801E07B688D
:102ADC0004337B61BB69FF2B02D87B6A9B0002E04D
:102AEC007B6A083B9B003B617B691A680F213B6941
:102AFC0001FA03F3DB431A40396A3B6901FA03F329
:102B0C001A437B691A603B685B6803F08053002BA7
:102B1C0000F09080564B9B69554A43F0010393613A
:102B2C00534B9B6903F00103BB60BB68514A7B6A42
:102B3C009B08023352F82330FB607B6A03F00303DB
:102B4C009B000F2202FA03F3DB43FA681340FB608D
:102B5C007B68494A93420DD07B68484A934207D020
:102B6C007B68474A934201D1022304E0032302E02D
:102B7C00012300E000237A6A02F0030292009340E2
:102B8C00FA681343FB603B497B6A9B080233FA6883
:102B9C0041F823203B685B6803F48013002B06D0BC
:102BAC00384B9A683749BB6913438B6006E0354B49
:102BBC009A68BB69DB43334913408B603B685B68A5
:102BCC0003F40013002B06D02E4BDA682D49BB6999
:102BDC001343CB6006E02B4BDA68BB69DB43294916
:102BEC001340CB603B685B6803F40033002B06D0CA
:102BFC00244B5A682349BB6913434B6006E0214BB5
:102C0C005A68BB69DB431F4913404B603B685B68E8
:102C1C0003F48033002B06D01A4B1A681949BB6990
:102C2C0013430B6006E0174B1A68BB69DB4315496D
:102C3C0013400B607B6A01337B623B681A687B6ACA
:102C4C0022FA03F3002B7FF4AFAE00BF00BF2C378A
:102C5C00BD4680BC704700BF000032100000311030
:102C6C0000002210000021100000121000001110B2
:102C7C00001002400000014000080140000C01401F
:102C8C00001001400004014080B485B000AF7860B2
:102C9C000B467B807B689A687B881340002B02D0A4
:102CAC000123FB7301E00023FB73FB7B18461437F5
:102CBC00BD4680BC704780B483B000AF78600B46D3
:102CCC007B8013467B707B78002B03D07A887B68E3
:102CDC001A6103E07B881A047B681A6100BF0C3709
:102CEC00BD4680BC7047000080B586B000AF7860F0
:102CFC007B68002B01D101236CE27B681B6803F01D
:102D0C000103002B00F08780924B5B6803F00C03EF
:102D1C00042B0CD08F4B5B6803F00C03082B12D1E7
:102D2C008C4B5B6803F48033B3F5803F0BD1894B3C
:102D3C001B6803F40033002B6CD07B685B68002BA2
:102D4C0068D1012346E27B685B68B3F5803F06D10E
:102D5C00804B1B687F4A43F4803313602EE07B6802
:102D6C005B68002B0CD17B4B1B687A4A23F48033B5
:102D7C001360784B1B68774A23F4802313601DE0A3
:102D8C007B685B68B3F5A02F0CD1724B1B68714A42
:102D9C0043F4802313606F4B1B686E4A43F48033FB
:102DAC0013600BE06B4B1B686A4A23F4803313608F
:102DBC00684B1B68674A23F4802313607B685B684D
:102DCC00002B13D0FFF7CEFC386108E0FFF7CAFCEC
:102DDC0002463B69D31A642B01D90323FAE15D4BFC
:102DEC001B6803F40033002BF0D014E0FFF7BAFC9F
:102DFC00386108E0FFF7B6FC02463B69D31A642B36
:102E0C0001D90323E6E1534B1B6803F40033002B79
:102E1C00F0D100E000BF7B681B6803F00203002BBD
:102E2C0063D04C4B5B6803F00C03002B0BD0494B6D
:102E3C005B6803F00C03082B1CD1464B5B6803F456
:102E4C008033002B16D1434B1B6803F00203002B7D
:102E5C0005D07B681B69012B01D00123BAE13D4BE6
:102E6C001B6823F0F8027B685B69DB00394913436C
:102E7C000B603AE07B681B69002B20D0364B01229B
:102E8C001A60FFF76FFC386108E0FFF76BFC024635
:102E9C003B69D31A022B01D903239BE12D4B1B68F1
:102EAC0003F00203002BF0D02A4B1B6823F0F8022E
:102EBC007B685B69DB00274913430B6015E0264BED
:102ECC0000221A60FFF74EFC386108E0FFF74AFC5D
:102EDC0002463B69D31A022B01D903237AE11D4B1D
:102EEC001B6803F00203002BF0D17B681B6803F016
:102EFC000803002B3AD07B689B69002B19D0174B29
:102F0C0001221A60FFF72EFC386108E0FFF72AFC5B
:102F1C0002463B69D31A022B01D903235AE10D4B0C
:102F2C005B6A03F00203002BF0D0012000F09AFA48
:102F3C001CE00A4B00221A60FFF714FC38610FE00A
:102F4C00FFF710FC02463B69D31A022B08D9032366
:102F5C0040E100BF001002400000424280044242A7
:102F6C009E4B5B6A03F00203002BE9D17B681B6864
:102F7C0003F00403002B00F0A6800023FB75974B95
:102F8C00DB6903F08053002B0DD1944BDB69934A22
:102F9C0043F08053D361914BDB6903F08053BB60EA
:102FAC00BB680123FB758E4B1B6803F48073002BED
:102FBC0018D18B4B1B688A4A43F480731360FFF75C
:102FCC00D1FB386108E0FFF7CDFB02463B69D31A11
:102FDC00642B01D90323FDE0814B1B6803F4807340
:102FEC00002BF0D07B68DB68012B06D17B4B1B6A76
:102FFC007A4A43F0010313622DE07B68DB68002BF7
:10300C000CD1764B1B6A754A23F001031362734B88
:10301C001B6A724A23F0040313621CE07B68DB68B2
:10302C00052B0CD16D4B1B6A6C4A43F004031362E5
:10303C006A4B1B6A694A43F0010313620BE0674B4E
:10304C001B6A664A23F001031362644B1B6A634AD2
:10305C0023F0040313627B68DB68002B15D0FFF7A9
:10306C0081FB38610AE0FFF77DFB02463B69D31A0E
:10307C0041F28832934201D90323ABE0574B1B6AD0
:10308C0003F00203002BEED014E0FFF76BFB38616A
:10309C000AE0FFF767FB02463B69D31A41F288321C
:1030AC00934201D9032395E04C4B1B6A03F00203B6
:1030BC00002BEED1FB7D012B05D1484BDB69474A38
:1030CC0023F08053D3617B68DB69002B00F0818097
:1030DC00424B5B6803F00C03082B61D07B68DB6907
:1030EC00022B46D13F4B00221A60FFF73BFB3861A5
:1030FC0008E0FFF737FB02463B69D31A022B01D9D4
:10310C00032367E0354B1B6803F00073002BF0D1F1
:10311C007B681B6AB3F5803F08D1304B5B6823F4A6
:10312C0000327B689B682D4913434B602B4B5B68CB
:10313C0023F474127B68196A7B685B6A0B4327491A
:10314C0013434B60274B01221A60FFF70BFB3861CE
:10315C0008E0FFF707FB02463B69D31A022B01D9A3
:10316C00032337E01D4B1B6803F00073002BF0D0DA
:10317C002FE01C4B00221A60FFF7F4FA386108E0CC
:10318C00FFF7F0FA02463B69D31A022B01D903234D
:10319C0020E0124B1B6803F00073002BF0D118E0F9
:1031AC007B68DB69012B01D1012313E00B4B5B68BE
:1031BC00FB60FB6803F480327B681B6A9A4206D181
:1031CC00FB6803F470127B685B6A9A4201D001239E
:1031DC0000E0002318461837BD4680BD00100240A1
:1031EC00007000406000424280B584B000AF78604F
:1031FC0039607B68002B01D10123D0E06A4B1B683E
:10320C0003F007033A689A4210D9674B1B6823F006
:10321C00070265493B6813430B60634B1B6803F063
:10322C0007033A689A4201D00123B8E07B681B6817
:10323C0003F00203002B20D07B681B6803F004030F
:10324C00002B05D0594B5B68584A43F4E06353603C
:10325C007B681B6803F00803002B05D0534B5B689D
:10326C00524A43F460535360504B5B6823F0F002B6
:10327C007B689B684D4913434B607B681B6803F06C
:10328C000103002B40D07B685B68012B07D1474BB7
:10329C001B6803F40033002B15D101237FE07B68FE
:1032AC005B68022B07D1414B1B6803F00073002BAA
:1032BC0009D1012373E03D4B1B6803F00203002B83
:1032CC0001D101236BE0394B5B6823F003027B686F
:1032DC005B68364913434B60FFF744FAF8600AE029
:1032EC00FFF740FA0246FB68D31A41F28832934248
:1032FC0001D9032353E02D4B5B6803F00C027B6870
:10330C005B689B009A42EBD1274B1B6803F00703C9
:10331C003A689A4210D2244B1B6823F007022249C8
:10332C003B6813430B60204B1B6803F007033A68A0
:10333C009A4201D0012332E07B681B6803F004033E
:10334C00002B08D0194B5B6823F4E0627B68DB68C8
:10335C00164913434B607B681B6803F00803002B72
:10336C0009D0124B5B6823F460527B681B69DB004D
:10337C000E4913434B6000F021F802460B4B5B687F
:10338C001B0903F00F030A49CB5C22FA03F3094A29
:10339C001360094B1B681846FFF7A2F90023184667
:1033AC001037BD4680BD00BF002002400010024017
:1033BC00D43C0008980000209C00002080B487B00A
:1033CC0000AF0023FB600023BB6000237B61002364
:1033DC007B6000233B611E4B5B68FB60FB6803F06A
:1033EC000C03042B02D0082B03D027E0194B3B61B4
:1033FC0027E0FB689B0C03F00F03174AD35C7B6040
:10340C00FB6803F48033002B10D0114B5B685B0C12
:10341C0003F00103114AD35CBB607B680D4A02FBCD
:10342C0003F2BB68B2FBF3F37B6104E07B680C4AEC
:10343C0002FB03F37B617B693B6102E0054B3B6163
:10344C0000BF3B6918461C37BD4680BC704700BFA7
:10345C000010024000127A00E43C0008F43C000822
:10346C0000093D0080B485B000AF78600A4B1B6842
:10347C000A4AA2FB03235B0A7A6802FB03F3FB6094
:10348C0000BFFB685A1EFA60002BF9D100BF00BFC9
:10349C001437BD4680BC704798000020D34D621095
:1034AC0080B582B000AF78607B68002B01D101231E
:1034BC0041E07B6893F83D30DBB2002B06D17B6892
:1034CC00002283F83C207868FFF772F87B680222B0
:1034DC0083F83D207B681A687B68043319461046D4
:1034EC0000F056FA7B68012283F846207B680122A3
:1034FC0083F83E207B68012283F83F207B68012201
:10350C0083F840207B68012283F841207B680122EC
:10351C0083F842207B68012283F843207B680122D8
:10352C0083F844207B68012283F845207B680122C4
:10353C0083F83D20002318460837BD4680BD0000A7
:10354C0080B485B000AF78607B6893F83D30DBB217
:10355C00012B01D0012335E07B68022283F83D204A
:10356C007B681B68DA687B681B6842F00102DA60D2
:10357C007B681B68164A934209D07B681B68B3F1C1
:10358C00804F04D07B681B68124A934211D17B6830
:10359C001B689B6803F00703FB60FB68062B10D0CD
:1035AC007B681B681A687B681B6842F001021A6012
:1035BC0007E07B681B681A687B681B6842F0010295
:1035CC001A60002318461437BD4680BC704700BFF4
:1035DC00002C01400004004080B584B000AF78603E
:1035EC007B681B68DB68FB607B681B681B69BB60C6
:1035FC00BB6803F00203002B20D0FB6803F002032E
:10360C00002B1BD07B681B686FF002021A617B6871
:10361C0001221A777B681B689B6903F00303002B5C
:10362C0003D0786800F098F905E0786800F08BF921
:10363C00786800F09AF97B6800221A77BB6803F06F
:10364C000403002B20D0FB6803F00403002B1BD0D9
:10365C007B681B686FF004021A617B6802221A7780
:10366C007B681B689B6903F44073002B03D078685C
:10367C0000F072F905E0786800F065F9786800F000
:10368C0074F97B6800221A77BB6803F00803002BDF
:10369C0020D0FB6803F00803002B1BD07B681B6851
:1036AC006FF008021A617B6804221A777B681B682A
:1036BC00DB6903F00303002B03D0786800F04CF9AE
:1036CC0005E0786800F03FF9786800F04EF97B6807
:1036DC0000221A77BB6803F01003002B20D0FB6884
:1036EC0003F01003002B1BD07B681B686FF01002DB
:1036FC001A617B6808221A777B681B68DB6903F404
:10370C004073002B03D0786800F026F905E0786848
:10371C0000F019F9786800F028F97B6800221A7714
:10372C00BB6803F00103002B0CD0FB6803F0010312
:10373C00002B07D07B681B686FF001021A61786858
:10374C00FEF7E6FBBB6803F08003002B0CD0FB6894
:10375C0003F08003002B07D07B681B686FF080029E
:10376C001A61786800F06FFABB6803F04003002B15
:10377C000CD0FB6803F04003002B07D07B681B6860
:10378C006FF040021A61786800F0F8F8BB6803F03B
:10379C002003002B0CD0FB6803F02003002B07D078
:1037AC007B681B686FF020021A61786800F042FA9F
:1037BC0000BF1037BD4680BD80B584B000AF7860C7
:1037CC0039600023FB737B6893F83C30012B01D1EB
:1037DC000223B4E07B68012283F83C207B68022240
:1037EC0083F83D207B681B689B68BB60BB6823F03B
:1037FC007703BB60BB6823F47F43BB607B681B68AB
:10380C00BA689A603B681B68B3F5005F3ED0B3F5AD
:10381C00005F00F28780B3F5805F00F08680B3F51F
:10382C00805F7FD8702B1AD0702B7BD8602B50D038
:10383C00602B77D8502B3CD0502B73D8402B58D0C2
:10384C00402B6FD8302B64D0302B6BD8202B60D012
:10385C00202B67D8002B5CD0102B5AD062E07B68F1
:10386C0018683B6899683B685A683B68DB6800F0ED
:10387C006AF97B681B689B68BB60BB6843F0770385
:10388C00BB607B681B68BA689A604FE07B681868FD
:10389C003B6899683B685A683B68DB6800F053F9F1
:1038AC007B681B689A687B681B6842F480429A604C
:1038BC003CE07B6818683B6859683B68DB681A46D3
:1038CC0000F0CAF87B681B685021184600F021F9FB
:1038DC002CE07B6818683B6859683B68DB681A46C3
:1038EC0000F0E8F87B681B686021184600F011F9BD
:1038FC001CE07B6818683B6859683B68DB681A46B3
:10390C0000F0AAF87B681B684021184600F001F90A
:10391C000CE07B681A683B681B681946104600F07F
:10392C00F8F803E00123FB7300E000BF7B68012281
:10393C0083F83D207B68002283F83C20FB7B1846F3
:10394C001037BD4680BD80B483B000AF786000BF37
:10395C000C37BD4680BC704780B483B000AF786034
:10396C0000BF0C37BD4680BC704780B483B000AF3D
:10397C00786000BF0C37BD4680BC704780B483B004
:10398C0000AF786000BF0C37BD4680BC70470000AC
:10399C0080B485B000AF786039607B681B68FB60D1
:1039AC007B682B4A934207D07B68B3F1804F03D0DE
:1039BC007B68284A934208D1FB6823F07003FB60B4
:1039CC003B685B68FA681343FB607B68204A934250
:1039DC0007D07B68B3F1804F03D07B681D4A9342BC
:1039EC0008D1FB6823F44073FB603B68DB68FA6822
:1039FC001343FB60FB6823F080023B685B69134355
:103A0C00FB607B68FA681A603B689A687B68DA62CC
:103A1C003B681A687B689A627B680D4A934203D1B3
:103A2C003B681A697B681A637B6801225A617B6860
:103A3C001B6903F00103002B05D07B681B6923F085
:103A4C0001027B681A6100BF1437BD4680BC704709
:103A5C00002C01400004004080B487B000AFF86037
:103A6C00B9607A60FB681B6A7B61FB681B6A23F098
:103A7C000102FB681A62FB689B693B613B6923F09E
:103A8C00F0033B617B681B013A6913433B617B6923
:103A9C0023F00A037B617A69BB6813437B61FB6883
:103AAC003A699A61FB687A691A6200BF1C37BD4695
:103ABC0080BC704780B487B000AFF860B9607A60A2
:103ACC00FB681B6A7B61FB681B6A23F01002FB68B6
:103ADC001A62FB689B693B613B6923F470433B6151
:103AEC007B681B033A6913433B617B6923F0A0039A
:103AFC007B61BB681B017A6913437B61FB683A6984
:103B0C009A61FB687A691A6200BF1C37BD4680BC9B
:103B1C00704780B485B000AF786039607B689B6873
:103B2C00FB60FB6823F07003FB603A68FB6813438F
:103B3C0043F00703FB607B68FA689A6000BF143798
:103B4C00BD4680BC704780B487B000AFF860B960E8
:103B5C007A603B60FB689B687B617B6923F47F43E5
:103B6C007B613B681A027B681A43BB6813437A6912
:103B7C0013437B61FB687A699A6000BF1C37BD46B2
:103B8C0080BC704780B485B000AF786039607B68CA
:103B9C0093F83C30012B01D1022341E07B680122D8
:103BAC0083F83C207B68022283F83D207B681B68ED
:103BBC005B68FB607B681B689B68BB60FB6823F0E1
:103BCC007003FB603B681B68FA681343FB607B68FF
:103BDC001B68FA685A607B681B68144A934209D0C8
:103BEC007B681B68B3F1804F04D07B681B68104A5C
:103BFC0093420CD1BB6823F08003BB603B685B68CD
:103C0C00BA681343BB607B681B68BA689A607B68B0
:103C1C00012283F83D207B68002283F83C2000239E
:103C2C0018461437BD4680BC704700BF002C0140BD
:103C3C000004004080B483B000AF786000BF0C3744
:103C4C00BD4680BC704780B483B000AF786000BFC5
:103C5C000C37BD4680BC704770B500260C4D0D4C22
:103C6C00641BA410A64209D100F022F800260A4DCC
:103C7C000A4C641BA410A64205D170BD55F8043B38
:103C8C0098470136EEE755F8043B98470136F2E7C2
:103C9C00F83C0008F83C0008F83C0008FC3C000824
:103CAC0003460244934200D1704703F8011BF9E725
:103CBC00F8B500BFF8BC08BC9E467047F8B500BF0D
:083CCC00F8BC08BC9E467047DD
:103CD40000000000000000000102030406070809B8
:103CE40002030405060708090A0B0C0D0E0F101039
:043CF40001020000C9
:043CF800310100088E
:043CFC000D010008AE
:103D000001000000010000000100000001000000AF
:103D1000010000000100000001000000010000009F
:103D2000010000000100000001000000010000008F
:103D30006400000006000000030000000200000014
:103D40000500000004000000020000000500000063
:103D50000300000002000000050000000300000056
:103D60000200000005000000020000000300000047
:103D70000500000002000000030000000500000034
:103D80000200000003000000050000000200000027
:103D900003000000E803000000127A001000000099
:043DA000010000001E
:040000050800267554
:00000001FF
