:020000040800F2
:1000000000280020E5250008752500087B2500084C
:1000100081250008872500088D25000800000000C4
:100020000000000000000000000000009325000810
:100030009F25000800000000AB250008B725000838
:100040002D2600082D2600082D2600082D26000844
:100050002D2600082D2600082D2600082D26000834
:100060002D2600082D2600082D2600082D26000824
:100070002D2600082D2600082D2600082D26000814
:100080002D2600082D2600082D2600082D26000804
:100090002D2600082D2600082D2600082D260008F4
:1000A0002D2600082D2600082D2600082D260008E4
:1000B000C52500082D260008000000002D26000898
:1000C0002D26000800000000000000002D2600087A
:1000D000000000002D2600082D260008000000006A
:1000E0002D2600082D2600082D26000800000000FF
:1000F0000000000000000000000000000000000000
:0C01000000000000000000005FF808F1A3
:10010C0010B5054C237833B9044B13B10448AFF345
:10011C0000800123237010BDA4000020000000000B
:10012C002C3C000808B5034B1BB103490348AFF343
:10013C00008008BD00000000A80000202C3C000836
:10014C0080B400AF064B1B68012B04D1044B00227A
:10015C001A60012300E000231846BD4680BC70479E
:10016C00C000002080B400AF064B1B68012B04D1EB
:10017C00044B00221A60012300E000231846BD4600
:10018C0080BC7047C400002080B400AF064B1B68D5
:10019C00012B04D1044B00221A60012300E0002340
:1001AC001846BD4680BC7047C800002080B582B0A0
:1001BC0000AF00237B601DE1934A7B6852F823203B
:1001CC0092497B6841F82320914A7B6852F823209E
:1001DC008D497B6841F823207B68002B55D14FF467
:1001EC0080718C4802F008FD03461946884A7B68EA
:1001FC0042F82310854A7B6852F8232082497B6899
:10020C0051F823309A4240D17F4A7B6852F8232020
:10021C007F497B6851F823309A4236D17E4A7B68FD
:10022C0052F823207A497B6851F823309A4214D033
:10023C00774A7B6852F8232077497B6841F8232062
:10024C00734A7B6852F82330002B1ED1734B01226A
:10025C001A60734B64221A6017E06D4A7B6852F87F
:10026C002330002B11D16E4B1B68013B6C4A136081
:10027C006B4B1B68002B08D1684B01221A60694B31
:10028C0001221A60664B64221A607B68012B55D1DF
:10029C004FF400715F4802F0AFFC034619465C4A0C
:1002AC007B6842F82310594A7B6852F82320564940
:1002BC007B6851F823309A4240D1534A7B6852F8FC
:1002CC00232053497B6851F823309A4236D1524A45
:1002DC007B6852F823204E497B6851F823309A42B0
:1002EC0014D04B4A7B6852F823204B497B6841F869
:1002FC002320474A7B6852F82330002B1ED14A4BEF
:10030C0001221A60464B64221A6017E0404A7B684F
:10031C0052F82330002B11D1414B1B68013B404A52
:10032C0013603F4B1B68002B08D13F4B01221A6016
:10033C003E4B01221A603A4B64221A607B68022BF6
:10034C0055D14FF48061334802F056FC03461946F0
:10035C002F4A7B6842F823102C4A7B6852F82320E2
:10036C0029497B6851F823309A4240D1264A7B6850
:10037C0052F8232026497B6851F823309A4236D113
:10038C00254A7B6852F8232021497B6851F8233099
:10039C009A4214D01E4A7B6852F823201E497B686F
:1003AC0041F823201A4A7B6852F82330002B1ED1C7
:1003BC001F4B01221A601A4B64221A6017E0144A70
:1003CC007B6852F82330002B11D1154B1B68013B75
:1003DC00134A1360124B1B68002B08D1144B0122DB
:1003EC001A60144B01221A600D4B64221A607B6850
:1003FC0001337B607B68022B7FF7DEAE00BF00BF52
:10040C000837BD4680BD00BF0C0000200000002056
:10041C0018000020000C014024000020C000002027
:10042C0030000020CC000020C4000020D0000020B0
:10043C00C8000020D400002080B400AF294B1B68FA
:10044C00092B06DC284B00221A60264B1B68264A17
:10045C005360244B1B68092B18DD224B1B68234A65
:10046C0082FB03129210DB17D31A1F4A13601D4B29
:10047C0019681E4B83FB01239A10CB17D21A134613
:10048C009B0013445B00CA1A174B5A60184B1B682D
:10049C00092B06DC174B00221A60154B1B68154AFA
:1004AC005360134B1B68092B18DD114B1B680F4A4B
:1004BC0082FB03129210DB17D31A0E4A13600C4BFB
:1004CC0019680A4B83FB01239A10CB17D21A1346D7
:1004DC009B0013445B00CA1A064B5A6000BFBD4612
:1004EC0080BC7047340000200401002067666666FB
:1004FC00400000201C01002080B400AF294B1B6879
:10050C00092B06DC284B00221A60264B1B68264A56
:10051C005360244B1B68092B18DD224B1B68234AA4
:10052C0082FB03129210DB17D31A1F4A13601D4B68
:10053C0019681E4B83FB01239A10CB17D21A134652
:10054C009B0013445B00CA1A174B5A60184B1B686C
:10055C00092B06DC174B00221A60154B1B68154A39
:10056C005360134B1B68092B18DD114B1B680F4A8A
:10057C0082FB03129210DB17D31A0E4A13600C4B3A
:10058C0019680A4B83FB01239A10CB17D21A134616
:10059C009B0013445B00CA1A064B5A6000BFBD4651
:1005AC0080BC7047380000200C010020676666662E
:1005BC00440000202401002080B400AF294B1B68AC
:1005CC00092B06DC284B00221A60264B1B68264A96
:1005DC005360244B1B68092B18DD224B1B68234AE4
:1005EC0082FB03129210DB17D31A1F4A13601D4BA8
:1005FC0019681E4B83FB01239A10CB17D21A134692
:10060C009B0013445B00CA1A174B5A60184B1B68AB
:10061C00092B06DC174B00221A60154B1B68154A78
:10062C005360134B1B68092B18DD114B1B680F4AC9
:10063C0082FB03129210DB17D31A0E4A13600C4B79
:10064C0019680A4B83FB01239A10CB17D21A134655
:10065C009B0013445B00CA1A064B5A6000BFBD4690
:10066C0080BC70473C000020140100206766666661
:10067C00480000202C01002080B582B000AF7860CB
:10068C007B68002B03D07B68012B12D023E0002267
:10069C004FF40041124802F0C6FA01224FF4805187
:1006AC000F4802F0C0FA0F4B1B68184600F034F9E3
:1006BC0011E001224FF40041094802F0B4FA002283
:1006CC004FF48051064802F0AEFA064B5B681846B0
:1006DC0000F022F900BF00BF0837BD4680BD00BF47
:1006EC00000C01401C01002080B582B000AF786086
:1006FC007B68002B03D07B68012B12D023E00022F7
:10070C004FF40041124802F08EFA01224FF480514E
:10071C000F4802F088FA0F4B1B68184600F0FCF8E3
:10072C0011E001224FF40041094802F07CFA00224A
:10073C004FF48051064802F076FA064B5B68184677
:10074C0000F0EAF800BF00BF0837BD4680BD00BF0F
:10075C00000C01402401002080B582B000AF78600D
:10076C007B68002B03D07B68012B12D023E0002286
:10077C004FF40041124802F056FA01224FF4805116
:10078C000F4802F050FA0F4B1B68184600F0C4F8E3
:10079C0011E001224FF40041094802F044FA002212
:1007AC004FF48051064802F03EFA064B5B6818463F
:1007BC0000F0B2F800BF00BF0837BD4680BD00BFD7
:1007CC00000C01402C01002080B582B000AF786095
:1007DC007B68002B03D07B68012B12D022E0002217
:1007EC004FF40051124802F01EFA01224FF48041DE
:1007FC000F4802F018FA0F4B1B68184600F01AFA53
:10080C0011E001224FF40051094802F00CFA0022C9
:10081C004FF48041064802F006FA064B5B68184616
:10082C0000F008FA00BF00BF0837BD4680BD00BF0E
:10083C00000C01400C01002080B582B000AF786044
:10084C007B68002B03D07B68012B12D022E00022A6
:10085C004FF40051124802F0E6F901224FF48041A6
:10086C000F4802F0E0F90F4B1B68184600F0E2F954
:10087C0011E001224FF40051094802F0D4F9002292
:10088C004FF48041064802F0CEF9064B5B681846DF
:10089C0000F0D0F900BF00BF0837BD4680BD00BFD7
:1008AC00000C01400401002080B582B000AF7860DC
:1008BC007B68002B03D07B68012B12D022E0002236
:1008CC004FF40051124802F0AEF901224FF480416E
:1008DC000F4802F0A8F90F4B1B68184600F0AAF954
:1008EC0011E001224FF40051094802F09CF900225A
:1008FC004FF48041064802F096F9064B5B681846A7
:10090C0000F098F900BF00BF0837BD4680BD00BF9E
:10091C00000C01401401002080B582B000AF78605B
:10092C007B68092B00F2808101A252F823F000BFF2
:10093C0065090008AD090008F50900083D0A000822
:10094C00850A0008CD0A0008150B00085D0B00088D
:10095C00A50B0008ED0B000800220121B44802F0A1
:10096C0062F900220221B24802F05DF90022042152
:10097C00AF4802F058F900220821AD4802F053F9B3
:10098C0000221021AA4802F04EF900222021A8488A
:10099C0002F049F901224021A54802F044F943E153
:1009AC0001220121A24802F03EF900220221A048B6
:1009BC0002F039F9002204219D4802F034F9012299
:1009CC0008219B4802F02FF901221021984802F0CF
:1009DC002AF901222021964802F025F90122402112
:1009EC00934802F020F91FE100220121904802F007
:1009FC001AF9002202218E4802F015F90122042175
:100A0C008B4802F010F900220821894802F00BF9FA
:100A1C0000221021864802F006F901222021844888
:100A2C0002F001F900224021814802F0FCF8FBE0C1
:100A3C00002201217E4802F0F6F8002202217C48B7
:100A4C0002F0F1F800220421794802F0ECF80022BF
:100A5C000821774802F0E7F801221021744802F0CF
:100A6C00E2F801222021724802F0DDF80022402138
:100A7C006F4802F0D8F8D7E0012201216C4802F04F
:100A8C00D2F8002202216A4802F0CDF8002204219B
:100A9C00674802F0C8F801220821654802F0C3F843
:100AAC0001221021624802F0BEF800222021604889
:100ABC0002F0B9F8002240215D4802F0B4F8B3E02E
:100ACC00002201215A4802F0AEF8012202215848B6
:100ADC0002F0A9F800220421554802F0A4F80022E3
:100AEC000821534802F09FF801221021504802F0CF
:100AFC009AF8002220214E4802F095F8002240215D
:100B0C004B4802F090F88FE000220121484802F097
:100B1C008AF801220221464802F085F800220421BD
:100B2C00434802F080F800220821414802F07BF88B
:100B3C00002210213E4802F076F8002220213C4889
:100B4C0002F071F800224021394802F06CF86BE099
:100B5C0000220121364802F066F8002202213448B6
:100B6C0002F061F800220421314802F05CF8012205
:100B7C0008212F4802F057F8012210212C4802F0CE
:100B8C0052F8012220212A4802F04DF8012240217E
:100B9C00274802F048F847E000220121244802F0DF
:100BAC0042F800220221224802F03DF800220421E2
:100BBC001F4802F038F8002208211D4802F033F8D3
:100BCC00002210211A4802F02EF800222021184889
:100BDC0002F029F800224021154802F024F823E005
:100BEC0000220121124802F01EF8002202211048B6
:100BFC0002F019F8002204210D4802F014F800222A
:100C0C0008210B4802F00FF801221021084802F0CD
:100C1C000AF800222021064802F005F800224021A3
:100C2C00034802F000F800BF00BF0837BD4680BD86
:100C3C00000C014080B582B000AF78607B68092B56
:100C4C0000F2B28101A252F823F000BF810C00081F
:100C5C00D30C0008250D0008770D0008C90D0008FD
:100C6C001B0E00086D0E0008BF0E0008110F0008C7
:100C7C00630F000800221021CD4801F0D4FF0022A0
:100C8C004FF40061CA4801F0CEFF00224FF48051AE
:100C9C00C74801F0C8FF00224FF40051C44801F0CE
:100CAC00C2FF00224FF48041C14801F0BCFF00227A
:100CBC004FF40041BE4801F0B6FF01228021BD482F
:100CCC0001F0B1FF70E101221021B94801F0ABFF36
:100CDC0000224FF40061B64801F0A5FF00224FF44A
:100CEC008051B34801F09FFF01224FF40051B048EE
:100CFC0001F099FF01224FF48041AD4801F093FFC0
:100D0C0001224FF40041AA4801F08DFF01228021FD
:100D1C00A84801F088FF47E100221021A44801F007
:100D2C0082FF00224FF40061A14801F07CFF0122F8
:100D3C004FF480519E4801F076FF00224FF4005191
:100D4C009B4801F070FF00224FF48041984801F05D
:100D5C006AFF01224FF40041954801F064FF002224
:100D6C008021944801F05FFF1EE100221021904881
:100D7C0001F059FF00224FF400618D4801F053FF40
:100D8C0000224FF480518A4801F04DFF00224FF4AD
:100D9C000051874801F047FF01224FF480418448FD
:100DAC0001F041FF01224FF40041814801F03BFF6B
:100DBC00002280217F4801F036FFF5E0012210214E
:100DCC007B4801F030FF00224FF40061784801F0BD
:100DDC002AFF00224FF48051754801F024FF0122B4
:100DEC004FF40051724801F01EFF01224FF4804174
:100DFC006F4801F018FF00224FF400416C4801F0DD
:100E0C0012FF002280216B4801F00DFFCCE0002284
:100E1C001021674801F007FF01224FF4006164487C
:100E2C0001F001FF00224FF48051614801F0FBFEFC
:100E3C0000224FF400515E4801F0F5FE01224FF400
:100E4C0080415B4801F0EFFE00224FF4004158480E
:100E5C0001F0E9FE00228021564801F0E4FEA3E0F7
:100E6C0000221021524801F0DEFE01224FF40061F5
:100E7C004F4801F0D8FE00224FF480514C4801F04D
:100E8C00D2FE00224FF40051494801F0CCFE002262
:100E9C004FF48041464801F0C6FE00224FF4004159
:100EAC00434801F0C0FE00228021424801F0BBFE05
:100EBC007AE0002210213E4801F0B5FE00224FF4EA
:100ECC0000613B4801F0AFFE00224FF480513848DE
:100EDC0001F0A9FE01224FF40051354801F0A3FEA8
:100EEC0001224FF48041324801F09DFE01224FF463
:100EFC0000412F4801F097FE012280212D4801F07E
:100F0C0092FE51E000221021294801F08CFE0022B3
:100F1C004FF40061264801F086FE00224FF4805108
:100F2C00234801F080FE00224FF40051204801F0CC
:100F3C007AFE00224FF480411D4801F074FE00221D
:100F4C004FF400411A4801F06EFE0022802119482E
:100F5C0001F069FE28E000221021154801F063FE23
:100F6C0000224FF40061124801F05DFE00224FF4A4
:100F7C0080510F4801F057FE00224FF400510C48ED
:100F8C0001F051FE01224FF48041094801F04BFE63
:100F9C0000224FF40041064801F045FE002280215A
:100FAC00044801F040FE00BF00BF0837BD4680BDBD
:100FBC0000080140000C014080B500AF784B1B6865
:100FCC00672B00F0D080672B00F3E080662B00F0DD
:100FDC00B780662B00F3DA80042B11DC002B40F376
:100FEC00D580013B032B00F2D18001A252F823F0F3
:100FFC0015100008531000089B100008E1100008A1
:10100C00652B00F08A80C1E000224FF480716548A6
:10101C0001F009FE00224FF48061624801F003FEEA
:10102C0000224FF400715F4801F0FDFD5C4B022281
:10103C001A605D4B1B685D4A126802FB03F318468D
:10104C0001F07AF9A9E001224FF48071554801F0C2
:10105C00EAFD00224FF48061524801F0E4FD0022C9
:10106C004FF400714F4801F0DEFD514B1B68012B12
:10107C0040F08E804A4B03221A604E4B1B684B4A41
:10108C00126802FB03F3184601F056F980E00022C7
:10109C004FF48071434801F0C6FD00224FF480618B
:1010AC00404801F0C0FD01224FF400713D4801F0B1
:1010BC00BAFD3F4B1B68012B6CD1394B04221A60D3
:1010CC003D4B1B68394A126802FB03F3184601F0CA
:1010DC0033F95FE000224FF48071324801F0A3FD38
:1010EC0001224FF480612F4801F09DFD00224FF446
:1010FC0000712C4801F097FD2D4B1B68012B4BD137
:10110C00274B02221A60284B1B68284A126802FBE4
:10111C0003F3184601F010F93EE001224FF4807100
:10112C00204801F080FD00224FF480611D4801F041
:10113C007AFD00224FF400711A4801F074FD2CE086
:10114C0000224FF48071174801F06DFD01224FF41D
:10115C008061144801F067FD00224FF400711148C2
:10116C0001F061FD19E000224FF480710D4801F08F
:10117C005AFD00224FF480610A4801F054FD01220F
:10118C004FF40071074801F04EFD06E000BF04E08B
:10119C0000BF02E000BF00E000BF00BF80BD00BF89
:1011AC00F40000200008014064000020940000209E
:1011BC00400100206C0000206800002080B500AFCA
:1011CC006C4B1B68672B00F0BC80672B00F3C9804D
:1011DC00662B00F0A680662B00F3C380082B11DC75
:1011EC00052BC0F2BE80053B032B00F2BA8001A296
:1011FC0052F823F0171200084F1200088F12000843
:10120C00CF120008652B7CD0ABE0002220215A487D
:10121C0001F009FD00228021574801F004FD002255
:10122C004021554801F0FFFC524B06221A60534BEB
:10123C001B68534A126802FB03F3184601F060F86E
:10124C0096E0002220214C4801F0EDFC0022802188
:10125C00494801F0E8FC01224021474801F0E3FC39
:10126C00484B1B68012B7ED1424B07221A60464B20
:10127C001B68434A126802FB03F3184601F040F85E
:10128C0071E0002220213C4801F0CDFC012280219C
:10129C00394801F0C8FC00224021374801F0C3FC5A
:1012AC00384B1B68012B60D1324B08221A60374B2C
:1012BC001B68334A126802FB03F3184601F020F84E
:1012CC0053E0012220212C4801F0ADFC00228021AA
:1012DC00294801F0A8FC00224021274801F0A3FC7A
:1012EC00284B1B68012B42D1224B06221A60234B40
:1012FC001B68234A126802FB03F3184601F000F83E
:10130C0035E0012220211C4801F08DFC00228021B7
:10131C00194801F088FC00224021174801F083FC99
:10132C0026E000222021144801F07DFC01228021BE
:10133C00114801F078FC002240210F4801F073FCA9
:10134C0016E0002220210C4801F06DFC00228021C7
:10135C00094801F068FC01224021074801F063FCB8
:10136C0006E000BF04E000BF02E000BF00E000BFE9
:10137C0000BF80BDF800002000080140780000206C
:10138C009400002048010020740000207000002010
:10139C0080B500AF9E4B1B68013B052B00F22981E9
:1013AC0001A252F823F000BFCD1300084514000829
:1013BC00BD14000833150008BB150008771500088C
:1013CC00944B01221A60944B01221A60934B012218
:1013DC001A60934B1B68012B16D1924B1B68013B77
:1013EC00904A1360FFF728F88E4B1B68002B06D130
:1013FC008D4B1B688B4A1360854B02221A608B4BFA
:10140C001B68184600F044FF894B1B68012B40F009
:10141C00F280884B1B68012B02DD864B00221A6080
:10142C00844B1B685A1C83490A601846FFF704FA60
:10143C00502000F011FFDEE0764B01221A60764B53
:10144C0001221A60754B01221A60754B1B68012B27
:10145C0016D1794B1B68013B774A1360FFF74CF8A8
:10146C00754B1B68002B06D1744B1B68724A1360BA
:10147C00674B03221A606D4B1B68184600F008FF7F
:10148C006B4B1B68012B40F0B8806A4B1B68012B1F
:10149C0002DD684B00221A60664B1B685A1C6549BA
:1014AC000A601846FFF790F9502000F0D5FEA4E032
:1014BC00584B01221A60584B01221A60574B0122DB
:1014CC001A60574B1B68012B16D15D4B1B68013BF7
:1014DC005B4A1360FFF770F8594B1B68002B06D161
:1014EC00584B1B68564A1360494B01221A604F4BEC
:1014FC001B68184600F0CCFE4D4B1B68012B7ED1AF
:10150C004C4B1B68012B02DD4A4B00221A60494BE5
:10151C001B685A1C47490A601846FFF7C5F950204A
:10152C0000F09AFE6BE03E4B1B68012B06D1FEF7D8
:10153C0083FF3E4B1B68184600F0AAFE3C4B1B6811
:10154C00012B5ED13B4B1B68012B02DD394B00227A
:10155C001A60384B1B685A1C36490A601846FFF74C
:10156C006BF9502000F078FE4BE02D4B1B68012BE3
:10157C0006D1FEF7C1FF2D4B1B68184600F088FE04
:10158C002B4B1B68012B3ED12A4B1B68012B02DD18
:10159C00284B00221A60274B1B685A1C25490A60ED
:1015AC001846FFF711F9502000F056FE2BE01C4BAB
:1015BC001B68012B06D1FEF7FFFF1C4B1B6818465E
:1015CC0000F066FE1A4B1B68012B1ED1194B1B68D1
:1015DC00012B02DD174B00221A60164B1B685A1C9C
:1015EC0014490A601846FFF75FF9502000F034FEEA
:1015FC000BE000BF0AE000BF08E000BF06E000BF40
:10160C0004E000BF02E000BF00E000BF00BF80BDEF
:10161C0000010020D8000020DC000020E0000020A9
:10162C0058010020340000204C00002094000020C1
:10163C006001002034010020380000205000002000
:10164C003C0000205400002080B500AF9E4B1B686E
:10165C00013B052B00F2298101A252F823F000BFB7
:10166C0085160008FD16000875170008EB17000812
:10167C002F18000873180008944B01221A60944B21
:10168C0001221A60934B01221A60934B1B68012BA9
:10169C0016D1924B1B68013B904A1360FEF72CFF4E
:1016AC008E4B1B68002B06D18D4B1B688B4A13602D
:1016BC00854B02221A608B4B1B68184600F004FE07
:1016CC00894B1B68012B40F0F280884B1B68012B67
:1016DC0002DD864B00221A60844B1B685A1C83491E
:1016EC000A601846FFF700F8502000F099FDDEE084
:1016FC00764B01221A60764B01221A60754B01223F
:10170C001A60754B1B68012B16D1794B1B68013B7A
:10171C00774A1360FEF750FF754B1B68002B06D100
:10172C00744B1B68724A1360674B03221A606D4B33
:10173C001B68184600F0C8FD6B4B1B68012B40F072
:10174C00B8806A4B1B68012B02DD684B00221A60C3
:10175C00664B1B685A1C65490A601846FEF7FCFF6D
:10176C00502000F05DFDA4E0584B01221A60584B4C
:10177C0001221A60574B01221A60574B1B68012B30
:10178C0016D15D4B1B68013B5B4A1360FEF754FEA0
:10179C00594B1B68002B06D1584B1B68564A1360DB
:1017AC00494B01221A604F4B1B68184600F08CFD08
:1017BC004D4B1B68012B7ED14C4B1B68012B02DD62
:1017CC004A4B00221A60494B1B685A1C47490A6055
:1017DC001846FEF751FF502000F022FD6BE03E4B07
:1017EC001B68012B06D1FEF727FE3E4B1B681846E3
:1017FC0000F06AFD3C4B1B68012B5ED13B4B1B6818
:10180C00012B02DD394B00221A60384B1B685A1C25
:10181C0036490A601846FEF72FFF502000F000FDF5
:10182C004BE02D4B1B68012B06D1FEF7C5FE2D4B53
:10183C001B68184600F048FD2B4B1B68012B3ED152
:10184C002A4B1B68012B02DD284B00221A60274B08
:10185C001B685A1C25490A601846FEF77DFF50206C
:10186C0000F0DEFC2BE01C4B1B68012B06D1FEF7B5
:10187C0043FE1C4B1B68184600F026FD1A4B1B68D8
:10188C00012B1ED1194B1B68012B02DD174B0022BB
:10189C001A60164B1B685A1C14490A601846FEF74E
:1018AC0023FF502000F0BCFC0BE000BF0AE000BF9F
:1018BC0008E000BF06E000BF04E000BF02E000BF8C
:1018CC0000E000BF00BF80BDFC000020E400002051
:1018DC00E8000020EC000020500100204400002013
:1018EC005C000020940000206801002038010020DA
:1018FC00480000206000002040000020580000201C
:10190C0080B500AF744B1B680C3B042B00F28C8130
:10191C0001A252F823F000BF391900084119000840
:10192C00551900081D1A0008491B00086A4B0D22A6
:10193C001A6079E1FEF704FC0346012B40F06D813F
:10194C00654B0E221A6068E1644B65221A60644B89
:10195C0065221A60634B04221A60634B04221A60DE
:10196C00624B1B68012B05D1614B05221A605F4B42
:10197C0000221A605F4B1B68012B05D15E4B0522C0
:10198C001A605C4B00221A60FEF7ECFB0346012B3D
:10199C001BD15A4B1B680133584A1360584B1B68B8
:1019AC000133574A1360524B1B680133504A136082
:1019BC00514B1B680133504A13604D4B1B68514A05
:1019CC0013604D4B1B68504A1360FEF7DDFB03465A
:1019DC00012B13D14D4B1B68494A13604C4B1B68B0
:1019EC00464A1360424B05221A60434B05221A608B
:1019FC00444B05221A60444B05221A60FEF7A0FBEB
:101A0C000346012B40F00B81334B0F221A6006E189
:101A1C00324B67221A60324B67221A60314B062216
:101A2C001A60314B06221A603A4B1B68012B05D108
:101A3C00394B03221A60374B00221A60374B1B6854
:101A4C00012B05D1364B03221A60344B00221A604D
:101A5C00FEF788FB0346012B1BD1324B1B6801336D
:101A6C00304A1360304B1B6801332F4A13602A4BEA
:101A7C001B680133284A1360294B1B680133284A21
:101A8C001360254B1B68294A1360254B1B68284A99
:101A9C001360FEF779FB0346012B13D1254B1B6812
:101AAC00214A1360244B1B681E4A13601A4B0322F5
:101ABC001A601B4B03221A601C4B03221A601C4B2E
:101ACC0003221A60FEF73CFB0346012B40F0A98071
:101ADC00014B10221A60A4E0F0000020F40000205A
:101AEC00F800002000010020FC000020D80000209D
:101AFC0034000020E400002040000020640000209E
:101B0C00700000204C0000205800002088000020AD
:101B1C007C000020DC00002038000020E8000020C1
:101B2C00440000206C0000207800002050000020B1
:101B3C005C00002090000020840000203B4B6622BB
:101B4C001A603B4B66221A603A4B05221A603A4BDC
:101B5C0005221A60394B1B68012B05D1384B022228
:101B6C001A60364B00221A60364B1B68012B05D1CC
:101B7C00354B02221A60334B00221A60FEF7F2FA40
:101B8C000346012B1BD1314B1B6801332F4A1360C9
:101B9C002F4B1B6801332E4A1360294B1B680133F2
:101BAC00274A1360284B1B680133274A1360244BC8
:101BBC001B68284A1360244B1B68274A1360FEF7E6
:101BCC00E3FA0346012B13D1244B1B68204A136004
:101BDC00234B1B681D4A1360194B02221A601A4BC7
:101BEC0002221A601C4B02221A601A4B02221A6043
:101BFC00FEF7A6FA0346012B15D11A4B0C221A60DC
:101C0C000A4B01221A600A4B05221A60094B012269
:101C1C001A60094B01221A6005E000BF04E000BF06
:101C2C0002E000BF00E000BF00BF80BDF400002058
:101C3C00F800002000010020FC000020E000002043
:101C4C003C000020EC000020480000206800002030
:101C5C007400002054000020600000208C00002044
:101C6C0080000020F000002080B500AF00F0DAFC0E
:101C7C0000F06AF80A2000F0EFFA0A2000F024FBCA
:101C8C000A2000F005FB0A2000F03AFB0A2000F0C5
:101C9C0053FB0A2000F0C4FA0A2000F0A5FA0A202F
:101CAC0000F086FA00F0D8F800F08AF81B4801F032
:101CBC00FFFB00F07FF91A4B01221A60194B052229
:101CCC001A60194B01221A60184B01221A60184B2A
:101CDC000C221A600A220021164800F0B1F90A22DF
:101CEC000021154800F0ACF90A220021134800F03D
:101CFC00A7F90A220021124800F0A2F90A220021B9
:101D0C00104800F09DF9FFF757F9FFF757FAFFF766
:101D1C003FFBFFF799FCFFF7F3FDF4E77C01002094
:101D2C00F4000020F800002000010020FC0000203E
:101D3C00F0000020C50F0008C91100089D13000811
:101D4C00551600080D19000880B590B000AF07F1CA
:101D5C00180328220021184601F05AFF3B1D0022CF
:101D6C001A605A609A60DA601A610223BB6101231F
:101D7C00BB621023FB6200237B6307F11803184638
:101D8C0000F06AFF0346002B01D000F0DCF80F23B3
:101D9C007B600023BB600023FB6000233B610023BE
:101DAC007B613B1D0021184601F0D6F90346002B40
:101DBC0001D000F0C8F800BF4037BD4680BD000020
:101DCC0080B586B000AF07F1080300221A605A6094
:101DDC009A60DA603B4600221A605A601D4B4FF045
:101DEC0080421A601B4B41F63F725A60194B00221D
:101DFC009A60184B0922DA60164B00221A61154BB7
:101E0C0000229A61134801F003FB0346002B01D01A
:101E1C0000F099F84FF48053BB6007F108031946A2
:101E2C000C4801F081FC0346002B01D000F08BF82C
:101E3C0000233B6000237B603B461946054801F0BC
:101E4C0059FE0346002B01D000F07DF800BF183777
:101E5C00BD4680BD7C01002080B586B000AF07F187
:101E6C00080300221A605A609A60DA60294B9B6959
:101E7C00284A43F004039361264B9B6903F0040347
:101E8C007B607B68234B9B69224A43F00803936178
:101E9C00204B9B6903F008033B603B6800224FF624
:101EAC00F8711D4800F0BFFE00224FF2FF011B48E5
:101EBC0000F0B9FE4FF6F873BB600123FB60002302
:101ECC003B6102237B6107F108031946124800F0BD
:101EDC0019FD4FF2FF03BB600123FB6000233B6144
:101EEC0002237B6107F1080319460C4800F00AFD38
:101EFC004FF4E063BB600023FB6001233B6107F1FF
:101F0C0008031946054800F0FDFC00BF1837BD4614
:101F1C0080BD00BF0010024000080140000C0140D1
:101F2C0080B582B000AF78607B681B68B3F1804FDE
:101F3C0001D100F063F8FEF739F900F019FA00BF8F
:101F4C000837BD4680BD80B400AF72B600BFFEE757
:101F5C0080B483B000AF78607B689B68002B02D1A3
:101F6C007B6801221A7400BF0C37BD4680BC7047D9
:101F7C0080B485B000AFF860B9603B601346FB716C
:101F8C00FB68BA681A60FB68FA791A71FB683A68E0
:101F9C009A60FB68BA69DA603B68002B0CBF0123BE
:101FAC000023DBB21A46FB681A7400BF1437BD4617
:101FBC0080BC704780B584B002AF0023FB7113E086
:101FCC00FA7913469B0013449B000B4A9818FB7933
:101FDC00C3F11403DAB20023009300230021FFF7AE
:101FEC00C7FFFB790133FB71FB79132BE8D900BFD9
:101FFC0000BF0837BD4680BDC401002080B400AFCF
:10200C000E4B1B68002B14D00C4B9B680A2B05D96C
:10201C000A4B9B680A3B094A936002E0074B00227B
:10202C009A60064B9B68002B04D1044B01221A7456
:10203C0000E000BFBD4680BC704700BFC40100205B
:10204C00B0B588B002AFF860B9607A60574BD3F87E
:10205C007C31002B01D00023A4E0544B93F8803149
:10206C007B7400237B610023FB7496E0FA7C4F4960
:10207C0013469B0013449B000B4408331B687A697E
:10208C0013447B617A69BB689A4209D8FA7C474948
:10209C0013469B0013449B000B441B68002B79D107
:1020AC001323BB7417E0BB7C5A1EB97C3F480B460C
:1020BC009B000B449B0018443C4913469B00134463
:1020CC009B000B4404461D460FCD0FC42B682360A8
:1020DC00BB7C013BBB74BA7CFB7C9A42E3D8FA7C98
:1020EC0013469B0013449B00304A98187A69BB68CE
:1020FC009A420ED9FB7C5A1C2C4913469B00134464
:10210C009B000B4408331A68B9687B69CB1A1344DB
:10211C0002E0BA687B69D31A797C7A6800920A4625
:10212C00F968FFF725FF7A69BB689A4228D9FB7CCE
:10213C005A1C1E4913469B0013449B000B44083346
:10214C001968FA7C194813469B0013449B000344FE
:10215C0008331B68FA7C0132C91A144813469B00D9
:10216C0013449B00034408331960FB7C5A1C134630
:10217C009B0013449B000D4A13441846FFF7E8FEDE
:10218C00FA7C0A4913469B0013449B000B4404330E
:10219C001B7807E0FB7C0133FB74FB7C132B7FF675
:1021AC0065AF002318461837BD46B0BDC4010020EA
:1021BC0080B483B000AF78607B68084A82FB03125E
:1021CC009210DB17D31A064A1360064B00221A60D2
:1021DC0000BF0C37BD4680BC704700BF67666666A3
:1021EC00740100207801002080B483B000AF7860C7
:1021FC007B68084A82FB03129210DB17D31A064A3B
:10220C001360064B00221A6000BF0C37BD4680BC21
:10221C00704700BF676666666C0100207001002085
:10222C0080B483B000AF78607B68084A82FB0312ED
:10223C009210DB17D31A064A1360064B00221A6061
:10224C0000BF0C37BD4680BC704700BF6766666632
:10225C00640100206801002080B483B000AF786076
:10226C007B68084A82FB03129210DB17D31A064ACA
:10227C001360064B00221A6000BF0C37BD4680BCB1
:10228C00704700BF676666665C0100206001002035
:10229C0080B483B000AF78607B68084A82FB03127D
:1022AC009210DB17D31A064A1360064B00221A60F1
:1022BC0000BF0C37BD4680BC704700BF67666666C2
:1022CC00540100205801002080B483B000AF786026
:1022DC007B68084A82FB03129210DB17D31A064A5A
:1022EC001360064B00221A6000BF0C37BD4680BC41
:1022FC00704700BF676666664C01002050010020E5
:10230C0080B483B000AF78607B68084A82FB03120C
:10231C009210DB17D31A064A1360064B00221A6080
:10232C0000BF0C37BD4680BC704700BF6766666651
:10233C00440100204801002080B483B000AF7860D5
:10234C007B68084A82FB03129210DB17D31A064AE9
:10235C001360064B00221A6000BF0C37BD4680BCD0
:10236C00704700BF676666663C0100204001002094
:10237C0080B400AF414B1B68002B0BDD3F4B1B683F
:10238C00013B3E4A13603D4B1B68002B02D13C4B7A
:10239C0001221A603B4B1B68002B0BDD394B1B6871
:1023AC00013B384A1360374B1B68002B02D1364B6C
:1023BC0001221A60354B1B68002B0BDD334B1B685D
:1023CC00013B324A1360314B1B68002B02D1304B5E
:1023DC0001221A602F4B1B68002B0BDD2D4B1B6849
:1023EC00013B2C4A13602B4B1B68002B02D12A4B50
:1023FC0001221A60294B1B68002B0BDD274B1B6835
:10240C00013B264A1360254B1B68002B02D1244B41
:10241C0001221A60234B1B68002B0BDD214B1B6820
:10242C00013B204A13601F4B1B68002B02D11E4B33
:10243C0001221A601D4B1B68002B0BDD1B4B1B680C
:10244C00013B1A4A1360194B1B68002B02D1184B25
:10245C0001221A60174B1B68002B0BDD154B1B68F8
:10246C00013B144A1360134B1B68002B02D1124B17
:10247C0001221A6000BFBD4680BC70473C010020A1
:10248C004001002044010020480100204C010020A4
:10249C005001002054010020580100205C01002054
:1024AC006001002064010020680100206C01002004
:1024BC0070010020740100207801002080B485B0E8
:1024CC0000AF154B9B69144A43F001039361124B07
:1024DC009B6903F00103BB60BB680F4BDB690E4AC1
:1024EC0043F08053D3610C4BDB6903F080537B606A
:1024FC007B680A4B5B68FB60FB6823F0E063FB6066
:10250C00FB6843F08063FB60044AFB68536000BFC8
:10251C001437BD4680BC70470010024000000140DB
:10252C0080B584B000AF78607B681B68B3F1804FD6
:10253C0013D10C4BDB690B4A43F00103D361094BFC
:10254C00DB6903F00103FB60FB68002200211C2007
:10255C0000F0A1F91C2000F0BAF900BF1037BD46FD
:10256C0080BD00BF0010024080B400AFFEE780B415
:10257C0000AFFEE780B400AFFEE780B400AFFEE72B
:10258C0080B400AFFEE780B400AF00BFBD4680BC96
:10259C00704780B400AF00BFBD4680BC704780B4AC
:1025AC0000AF00BFBD4680BC704780B500AF00F0E7
:1025BC007FF800BF80BD000080B500AF024800F07E
:1025CC00C3FF00BF80BD00BF7C01002080B400AF02
:1025DC0000BFBD4680BC7047FFF7F8FF0B480C49A5
:1025EC000C4A002302E0D458C4500433C4188C4263
:1025FC00F9D3094A094C002301E013600432A242CA
:10260C00FBD301F0E1FAFFF72FFB7047000000202D
:10261C00A4000020703C0008A400002058030020F7
:10262C00FEE7000080B500AF084B1B68074A43F07B
:10263C0010031360032000F023F90F2000F008F8BA
:10264C00FFF73CFF0023184680BD00BF002002406E
:10265C0080B582B000AF7860124B1A68124B1B78B1
:10266C0019464FF47A73B3FBF1F3B2FBF3F318464C
:10267C0000F03BF90346002B01D001230EE07B68F0
:10268C000F2B0AD8002279684FF0FF3000F003F9C5
:10269C00064A7B681360002300E0012318460837C4
:1026AC00BD4680BD98000020A00000209C000020AA
:1026BC0080B400AF054B1B781A46054B1B681344BE
:1026CC00034A136000BFBD4680BC7047A0000020C9
:1026DC005403002080B400AF024B1B681846BD4663
:1026EC0080BC70475403002080B485B000AF786084
:1026FC007B6803F00703FB600C4BDB68BB60BA68BC
:10270C004FF6FF031340BB60FB681A02BB68134310
:10271C0043F0BF6343F40033BB60044ABB68D3602F
:10272C0000BF1437BD4680BC704700BF00ED00E011
:10273C0080B400AF044BDB681B0A03F00703184698
:10274C00BD4680BC704700BF00ED00E080B483B094
:10275C0000AF0346FB7197F90730002B0BDBFB79BD
:10276C0003F01F02064997F907305B09012000FAB4
:10277C0002F241F8232000BF0C37BD4680BC7047E5
:10278C0000E100E080B483B000AF03463960FB7118
:10279C0097F90730002B0ADB3B68DAB20C4997F942
:1027AC0007301201D2B20B4483F800230AE03B68D5
:1027BC00DAB20849FB7903F00F03043B1201D2B2E1
:1027CC000B441A7600BF0C37BD4680BC704700BF67
:1027DC0000E100E000ED00E080B489B000AFF860EB
:1027EC00B9607A60FB6803F00703FB61FB69C3F116
:1027FC000703042B28BF0423BB61FB690433062B9E
:10280C0002D9FB69033B00E000237B614FF0FF32F0
:10281C00BB6902FA03F3DA43BB681A407B699A403E
:10282C004FF0FF317B6901FA03F3D9437B680B400E
:10283C00134318462437BD4680BC704780B582B020
:10284C0000AF78607B68013BB3F1807F01D301233B
:10285C000FE00A4A7B68013B53600F214FF0FF30B9
:10286C00FFF790FF054B00229A60044B07221A6079
:10287C00002318460837BD4680BD00BF10E000E0BD
:10288C0080B582B000AF78607868FFF72DFF00BF8D
:10289C000837BD4680BD80B586B000AF0346B96031
:1028AC007A60FB7300237B61FFF742FF78617A68E3
:1028BC00B9687869FFF790FF024697F90F30114617
:1028CC001846FFF75FFF00BF1837BD4680BD80B5C7
:1028DC0082B000AF0346FB7197F907301846FFF73B
:1028EC0035FF00BF0837BD4680BD80B582B000AF54
:1028FC0078607868FFF7A2FF034618460837BD4694
:10290C0080BD000080B48BB000AF786039600023CC
:10291C007B6200233B6248E101227B6A02FA03F3EB
:10292C00FB613B681B68FA691340BB61BA69FB69C0
:10293C009A4240F037813B685B68A34A93425ED071
:10294C00A14A934275D8A14A934258D09F4A9342C8
:10295C006FD89F4A934252D09D4A934269D89D4A60
:10296C0093424CD09B4A934263D89B4A934246D0A5
:10297C00994A93425DD8122B2AD8122B59D801A20E
:10298C0052F823F00B2A0008E5290008F729000863
:10299C00392A00083F2A00083F2A00083F2A00086D
:1029AC003F2A00083F2A00083F2A00083F2A000857
:1029BC003F2A00083F2A00083F2A00083F2A000847
:1029CC003F2A00083F2A0008ED290008012A0008C8
:1029DC00824A934213D02CE03B68DB683B6229E0CF
:1029EC003B68DB6804333B6224E03B68DB680833FC
:1029FC003B621FE03B68DB680C333B621AE03B68D0
:102A0C009B68002B02D104233B6213E03B689B685C
:102A1C00012B05D108233B627B68FA691A6109E036
:102A2C0008233B627B68FA695A6103E000233B622E
:102A3C0000E000BFBB69FF2B01D87B6801E07B681D
:102A4C0004337B61BB69FF2B02D87B6A9B0002E0DD
:102A5C007B6A083B9B003B617B691A680F213B69D1
:102A6C0001FA03F3DB431A40396A3B6901FA03F3B9
:102A7C001A437B691A603B685B6803F08053002B38
:102A8C0000F09080564B9B69554A43F001039361CB
:102A9C00534B9B6903F00103BB60BB68514A7B6AD3
:102AAC009B08023352F82330FB607B6A03F003036C
:102ABC009B000F2202FA03F3DB43FA681340FB601E
:102ACC007B68494A93420DD07B68484A934207D0B1
:102ADC007B68474A934201D1022304E0032302E0BE
:102AEC00012300E000237A6A02F003029200934073
:102AFC00FA681343FB603B497B6A9B080233FA6814
:102B0C0041F823203B685B6803F48013002B06D04C
:102B1C00384B9A683749BB6913438B6006E0354BD9
:102B2C009A68BB69DB43334913408B603B685B6835
:102B3C0003F40013002B06D02E4BDA682D49BB6929
:102B4C001343CB6006E02B4BDA68BB69DB432949A6
:102B5C001340CB603B685B6803F40033002B06D05A
:102B6C00244B5A682349BB6913434B6006E0214B45
:102B7C005A68BB69DB431F4913404B603B685B6879
:102B8C0003F48033002B06D01A4B1A681949BB6921
:102B9C0013430B6006E0174B1A68BB69DB431549FE
:102BAC0013400B607B6A01337B623B681A687B6A5B
:102BBC0022FA03F3002B7FF4AFAE00BF00BF2C371B
:102BCC00BD4680BC704700BF0000321000003110C1
:102BDC000000221000002110000012100000111043
:102BEC00001002400000014000080140000C0140B0
:102BFC00001001400004014080B485B000AF786043
:102C0C000B467B807B689A687B881340002B02D034
:102C1C000123FB7301E00023FB73FB7B1846143785
:102C2C00BD4680BC704780B483B000AF78600B4663
:102C3C007B8013467B707B78002B03D07A887B6873
:102C4C001A6103E07B881A047B681A6100BF0C3799
:102C5C00BD4680BC7047000080B586B000AF786080
:102C6C007B68002B01D101236CE27B681B6803F0AD
:102C7C000103002B00F08780924B5B6803F00C0380
:102C8C00042B0CD08F4B5B6803F00C03082B12D178
:102C9C008C4B5B6803F48033B3F5803F0BD1894BCD
:102CAC001B6803F40033002B6CD07B685B68002B33
:102CBC0068D1012346E27B685B68B3F5803F06D19F
:102CCC00804B1B687F4A43F4803313602EE07B6893
:102CDC005B68002B0CD17B4B1B687A4A23F4803346
:102CEC001360784B1B68774A23F4802313601DE034
:102CFC007B685B68B3F5A02F0CD1724B1B68714AD3
:102D0C0043F4802313606F4B1B686E4A43F480338B
:102D1C0013600BE06B4B1B686A4A23F4803313601F
:102D2C00684B1B68674A23F4802313607B685B68DD
:102D3C00002B13D0FFF7CEFC386108E0FFF7CAFC7C
:102D4C0002463B69D31A642B01D90323FAE15D4B8C
:102D5C001B6803F40033002BF0D014E0FFF7BAFC2F
:102D6C00386108E0FFF7B6FC02463B69D31A642BC6
:102D7C0001D90323E6E1534B1B6803F40033002B0A
:102D8C00F0D100E000BF7B681B6803F00203002B4E
:102D9C0063D04C4B5B6803F00C03002B0BD0494BFE
:102DAC005B6803F00C03082B1CD1464B5B6803F4E7
:102DBC008033002B16D1434B1B6803F00203002B0E
:102DCC0005D07B681B69012B01D00123BAE13D4B77
:102DDC001B6823F0F8027B685B69DB0039491343FD
:102DEC000B603AE07B681B69002B20D0364B01222C
:102DFC001A60FFF76FFC386108E0FFF76BFC0246C6
:102E0C003B69D31A022B01D903239BE12D4B1B6881
:102E1C0003F00203002BF0D02A4B1B6823F0F802BE
:102E2C007B685B69DB00274913430B6015E0264B7D
:102E3C0000221A60FFF74EFC386108E0FFF74AFCED
:102E4C0002463B69D31A022B01D903237AE11D4BAD
:102E5C001B6803F00203002BF0D17B681B6803F0A6
:102E6C000803002B3AD07B689B69002B19D0174BB9
:102E7C0001221A60FFF72EFC386108E0FFF72AFCEC
:102E8C0002463B69D31A022B01D903235AE10D4B9D
:102E9C005B6A03F00203002BF0D0012000F09AFAD9
:102EAC001CE00A4B00221A60FFF714FC38610FE09B
:102EBC00FFF710FC02463B69D31A022B08D90323F7
:102ECC0040E100BF00100240000042428004424238
:102EDC009E4B5B6A03F00203002BE9D17B681B68F5
:102EEC0003F00403002B00F0A6800023FB75974B26
:102EFC00DB6903F08053002B0DD1944BDB69934AB3
:102F0C0043F08053D361914BDB6903F08053BB607A
:102F1C00BB680123FB758E4B1B6803F48073002B7D
:102F2C0018D18B4B1B688A4A43F480731360FFF7EC
:102F3C00D1FB386108E0FFF7CDFB02463B69D31AA1
:102F4C00642B01D90323FDE0814B1B6803F48073D0
:102F5C00002BF0D07B68DB68012B06D17B4B1B6A06
:102F6C007A4A43F0010313622DE07B68DB68002B87
:102F7C000CD1764B1B6A754A23F001031362734B19
:102F8C001B6A724A23F0040313621CE07B68DB6843
:102F9C00052B0CD16D4B1B6A6C4A43F00403136276
:102FAC006A4B1B6A694A43F0010313620BE0674BDF
:102FBC001B6A664A23F001031362644B1B6A634A63
:102FCC0023F0040313627B68DB68002B15D0FFF73A
:102FDC0081FB38610AE0FFF77DFB02463B69D31A9F
:102FEC0041F28832934201D90323ABE0574B1B6A61
:102FFC0003F00203002BEED014E0FFF76BFB3861FB
:10300C000AE0FFF767FB02463B69D31A41F28832AC
:10301C00934201D9032395E04C4B1B6A03F0020346
:10302C00002BEED1FB7D012B05D1484BDB69474AC8
:10303C0023F08053D3617B68DB69002B00F0818027
:10304C00424B5B6803F00C03082B61D07B68DB6997
:10305C00022B46D13F4B00221A60FFF73BFB386135
:10306C0008E0FFF737FB02463B69D31A022B01D964
:10307C00032367E0354B1B6803F00073002BF0D182
:10308C007B681B6AB3F5803F08D1304B5B6823F437
:10309C0000327B689B682D4913434B602B4B5B685C
:1030AC0023F474127B68196A7B685B6A0B432749AB
:1030BC0013434B60274B01221A60FFF70BFB38615F
:1030CC0008E0FFF707FB02463B69D31A022B01D934
:1030DC00032337E01D4B1B6803F00073002BF0D06B
:1030EC002FE01C4B00221A60FFF7F4FA386108E05D
:1030FC00FFF7F0FA02463B69D31A022B01D90323DE
:10310C0020E0124B1B6803F00073002BF0D118E089
:10311C007B68DB69012B01D1012313E00B4B5B684E
:10312C00FB60FB6803F480327B681B6A9A4206D111
:10313C00FB6803F470127B685B6A9A4201D001232E
:10314C0000E0002318461837BD4680BD0010024031
:10315C00007000406000424280B584B000AF7860DF
:10316C0039607B68002B01D10123D0E06A4B1B68CE
:10317C0003F007033A689A4210D9674B1B6823F097
:10318C00070265493B6813430B60634B1B6803F0F4
:10319C0007033A689A4201D00123B8E07B681B68A8
:1031AC0003F00203002B20D07B681B6803F00403A0
:1031BC00002B05D0594B5B68584A43F4E0635360CD
:1031CC007B681B6803F00803002B05D0534B5B682E
:1031DC00524A43F460535360504B5B6823F0F00247
:1031EC007B689B684D4913434B607B681B6803F0FD
:1031FC000103002B40D07B685B68012B07D1474B48
:10320C001B6803F40033002B15D101237FE07B688E
:10321C005B68022B07D1414B1B6803F00073002B3A
:10322C0009D1012373E03D4B1B6803F00203002B13
:10323C0001D101236BE0394B5B6823F003027B68FF
:10324C005B68364913434B60FFF744FAF8600AE0B9
:10325C00FFF740FA0246FB68D31A41F288329342D8
:10326C0001D9032353E02D4B5B6803F00C027B6800
:10327C005B689B009A42EBD1274B1B6803F007035A
:10328C003A689A4210D2244B1B6823F00702224959
:10329C003B6813430B60204B1B6803F007033A6831
:1032AC009A4201D0012332E07B681B6803F00403CF
:1032BC00002B08D0194B5B6823F4E0627B68DB6859
:1032CC00164913434B607B681B6803F00803002B03
:1032DC0009D0124B5B6823F460527B681B69DB00DE
:1032EC000E4913434B6000F021F802460B4B5B6810
:1032FC001B0903F00F030A49CB5C22FA03F3094ABA
:10330C001360094B1B681846FFF7A2F900231846F7
:10331C001037BD4680BD00BF0020024000100240A7
:10332C00443C0008980000209C00002080B487B02A
:10333C0000AF0023FB600023BB6000237B610023F4
:10334C007B6000233B611E4B5B68FB60FB6803F0FA
:10335C000C03042B02D0082B03D027E0194B3B6144
:10336C0027E0FB689B0C03F00F03174AD35C7B60D0
:10337C00FB6803F48033002B10D0114B5B685B0CA3
:10338C0003F00103114AD35CBB607B680D4A02FB5E
:10339C0003F2BB68B2FBF3F37B6104E07B680C4A7D
:1033AC0002FB03F37B617B693B6102E0054B3B61F4
:1033BC0000BF3B6918461C37BD4680BC704700BF38
:1033CC000010024000127A00543C0008643C0008D3
:1033DC0000093D0080B485B000AF78600A4B1B68D3
:1033EC000A4AA2FB03235B0A7A6802FB03F3FB6025
:1033FC0000BFFB685A1EFA60002BF9D100BF00BF5A
:10340C001437BD4680BC704798000020D34D621025
:10341C0080B582B000AF78607B68002B01D10123AE
:10342C0041E07B6893F83D30DBB2002B06D17B6822
:10343C00002283F83C207868FFF772F87B68022240
:10344C0083F83D207B681A687B6804331946104664
:10345C0000F056FA7B68012283F846207B68012233
:10346C0083F83E207B68012283F83F207B68012291
:10347C0083F840207B68012283F841207B6801227D
:10348C0083F842207B68012283F843207B68012269
:10349C0083F844207B68012283F845207B68012255
:1034AC0083F83D20002318460837BD4680BD000038
:1034BC0080B485B000AF78607B6893F83D30DBB2A8
:1034CC00012B01D0012335E07B68022283F83D20DB
:1034DC007B681B68DA687B681B6842F00102DA6063
:1034EC007B681B68164A934209D07B681B68B3F152
:1034FC00804F04D07B681B68124A934211D17B68C1
:10350C001B689B6803F00703FB60FB68062B10D05D
:10351C007B681B681A687B681B6842F001021A60A2
:10352C0007E07B681B681A687B681B6842F0010225
:10353C001A60002318461437BD4680BC704700BF84
:10354C00002C01400004004080B584B000AF7860CE
:10355C007B681B68DB68FB607B681B681B69BB6056
:10356C00BB6803F00203002B20D0FB6803F00203BE
:10357C00002B1BD07B681B686FF002021A617B6802
:10358C0001221A777B681B689B6903F00303002BED
:10359C0003D0786800F098F905E0786800F08BF9B2
:1035AC00786800F09AF97B6800221A77BB6803F000
:1035BC000403002B20D0FB6803F00403002B1BD06A
:1035CC007B681B686FF004021A617B6802221A7711
:1035DC007B681B689B6903F44073002B03D07868ED
:1035EC0000F072F905E0786800F065F9786800F091
:1035FC0074F97B6800221A77BB6803F00803002B70
:10360C0020D0FB6803F00803002B1BD07B681B68E1
:10361C006FF008021A617B6804221A777B681B68BA
:10362C00DB6903F00303002B03D0786800F04CF93E
:10363C0005E0786800F03FF9786800F04EF97B6897
:10364C0000221A77BB6803F01003002B20D0FB6814
:10365C0003F01003002B1BD07B681B686FF010026B
:10366C001A617B6808221A777B681B68DB6903F494
:10367C004073002B03D0786800F026F905E07868D9
:10368C0000F019F9786800F028F97B6800221A77A5
:10369C00BB6803F00103002B0CD0FB6803F00103A3
:1036AC00002B07D07B681B686FF001021A617868E9
:1036BC00FEF736FCBB6803F08003002B0CD0FB68D4
:1036CC0003F08003002B07D07B681B686FF080022F
:1036DC001A61786800F06FFABB6803F04003002BA6
:1036EC000CD0FB6803F04003002B07D07B681B68F1
:1036FC006FF040021A61786800F0F8F8BB6803F0CC
:10370C002003002B0CD0FB6803F02003002B07D008
:10371C007B681B686FF020021A61786800F042FA2F
:10372C0000BF1037BD4680BD80B584B000AF786057
:10373C0039600023FB737B6893F83C30012B01D17B
:10374C000223B4E07B68012283F83C207B680222D0
:10375C0083F83D207B681B689B68BB60BB6823F0CB
:10376C007703BB60BB6823F47F43BB607B681B683B
:10377C00BA689A603B681B68B3F5005F3ED0B3F53E
:10378C00005F00F28780B3F5805F00F08680B3F5B0
:10379C00805F7FD8702B1AD0702B7BD8602B50D0C9
:1037AC00602B77D8502B3CD0502B73D8402B58D053
:1037BC00402B6FD8302B64D0302B6BD8202B60D0A3
:1037CC00202B67D8002B5CD0102B5AD062E07B6882
:1037DC0018683B6899683B685A683B68DB6800F07E
:1037EC006AF97B681B689B68BB60BB6843F0770316
:1037FC00BB607B681B68BA689A604FE07B6818688E
:10380C003B6899683B685A683B68DB6800F053F981
:10381C007B681B689A687B681B6842F480429A60DC
:10382C003CE07B6818683B6859683B68DB681A4663
:10383C0000F0CAF87B681B685021184600F021F98B
:10384C002CE07B6818683B6859683B68DB681A4653
:10385C0000F0E8F87B681B686021184600F011F94D
:10386C001CE07B6818683B6859683B68DB681A4643
:10387C0000F0AAF87B681B684021184600F001F99B
:10388C000CE07B681A683B681B681946104600F010
:10389C00F8F803E00123FB7300E000BF7B68012212
:1038AC0083F83D207B68002283F83C20FB7B184684
:1038BC001037BD4680BD80B483B000AF786000BFC8
:1038CC000C37BD4680BC704780B483B000AF7860C5
:1038DC0000BF0C37BD4680BC704780B483B000AFCE
:1038EC00786000BF0C37BD4680BC704780B483B095
:1038FC0000AF786000BF0C37BD4680BC704700003D
:10390C0080B485B000AF786039607B681B68FB6061
:10391C007B682B4A934207D07B68B3F1804F03D06E
:10392C007B68284A934208D1FB6823F07003FB6044
:10393C003B685B68FA681343FB607B68204A9342E0
:10394C0007D07B68B3F1804F03D07B681D4A93424C
:10395C0008D1FB6823F44073FB603B68DB68FA68B2
:10396C001343FB60FB6823F080023B685B691343E5
:10397C00FB607B68FA681A603B689A687B68DA625D
:10398C003B681A687B689A627B680D4A934203D144
:10399C003B681A697B681A637B6801225A617B68F1
:1039AC001B6903F00103002B05D07B681B6923F016
:1039BC0001027B681A6100BF1437BD4680BC70479A
:1039CC00002C01400004004080B487B000AFF860C8
:1039DC00B9607A60FB681B6A7B61FB681B6A23F029
:1039EC000102FB681A62FB689B693B613B6923F02F
:1039FC00F0033B617B681B013A6913433B617B69B4
:103A0C0023F00A037B617A69BB6813437B61FB6813
:103A1C003A699A61FB687A691A6200BF1C37BD4625
:103A2C0080BC704780B487B000AFF860B9607A6032
:103A3C00FB681B6A7B61FB681B6A23F01002FB6846
:103A4C001A62FB689B693B613B6923F470433B61E1
:103A5C007B681B033A6913433B617B6923F0A0032A
:103A6C007B61BB681B017A6913437B61FB683A6914
:103A7C009A61FB687A691A6200BF1C37BD4680BC2C
:103A8C00704780B485B000AF786039607B689B6804
:103A9C00FB60FB6823F07003FB603A68FB68134320
:103AAC0043F00703FB607B68FA689A6000BF143729
:103ABC00BD4680BC704780B487B000AFF860B96079
:103ACC007A603B60FB689B687B617B6923F47F4376
:103ADC007B613B681A027B681A43BB6813437A69A3
:103AEC0013437B61FB687A699A6000BF1C37BD4643
:103AFC0080BC704780B485B000AF786039607B685B
:103B0C0093F83C30012B01D1022341E07B68012268
:103B1C0083F83C207B68022283F83D207B681B687D
:103B2C005B68FB607B681B689B68BB60FB6823F071
:103B3C007003FB603B681B68FA681343FB607B688F
:103B4C001B68FA685A607B681B68144A934209D058
:103B5C007B681B68B3F1804F04D07B681B68104AEC
:103B6C0093420CD1BB6823F08003BB603B685B685D
:103B7C00BA681343BB607B681B68BA689A607B6841
:103B8C00012283F83D207B68002283F83C2000232F
:103B9C0018461437BD4680BC704700BF002C01404E
:103BAC000004004080B483B000AF786000BF0C37D5
:103BBC00BD4680BC704780B483B000AF786000BF56
:103BCC000C37BD4680BC704770B500260C4D0D4CB3
:103BDC00641BA410A64209D100F022F800260A4D5D
:103BEC000A4C641BA410A64205D170BD55F8043BC9
:103BFC0098470136EEE755F8043B98470136F2E753
:103C0C00683C0008683C0008683C00086C3C0008F4
:103C1C0003460244934200D1704703F8011BF9E7B5
:103C2C00F8B500BFF8BC08BC9E467047F8B500BF9D
:083C3C00F8BC08BC9E4670476D
:103C44000000000000000000010203040607080948
:103C540002030405060708090A0B0C0D0E0F1010C9
:043C64000102000059
:043C6800310100081E
:043C6C000D0100083E
:103C70000100000001000000010000000100000040
:103C80000100000001000000010000000100000030
:103C90000100000001000000010000000100000020
:103CA00064000000060000000300000002000000A5
:103CB00005000000040000000200000005000000F4
:103CC00003000000020000000500000003000000E7
:103CD00002000000050000000200000003000000D8
:103CE00005000000020000000300000005000000C5
:103CF00002000000030000000500000002000000B8
:103D000003000000E803000000127A001000000029
:043D100001000000AE
:04000005080025E5E5
:00000001FF
